{
  "_format": "hh-sol-artifact-1",
  "contractName": "LendingPool",
  "sourceName": "contracts/LendingPool.sol",
  "abi": [
    {
      "inputs": [
        {
          "internalType": "contract IERC20",
          "name": "_assetToken",
          "type": "address"
        }
      ],
      "stateMutability": "nonpayable",
      "type": "constructor"
    },
    {
      "anonymous": false,
      "inputs": [
        {
          "indexed": true,
          "internalType": "address",
          "name": "previousOwner",
          "type": "address"
        },
        {
          "indexed": true,
          "internalType": "address",
          "name": "newOwner",
          "type": "address"
        }
      ],
      "name": "OwnershipTransferred",
      "type": "event"
    },
    {
      "inputs": [],
      "name": "assetToken",
      "outputs": [
        {
          "internalType": "contract IERC20",
          "name": "",
          "type": "address"
        }
      ],
      "stateMutability": "view",
      "type": "function"
    },
    {
      "inputs": [
        {
          "internalType": "address",
          "name": "",
          "type": "address"
        }
      ],
      "name": "borrowerData",
      "outputs": [
        {
          "internalType": "uint256",
          "name": "age",
          "type": "uint256"
        },
        {
          "internalType": "enum LendingPool.LaboralStatus",
          "name": "status",
          "type": "uint8"
        },
        {
          "internalType": "uint256",
          "name": "income",
          "type": "uint256"
        },
        {
          "internalType": "uint256",
          "name": "walletActivity",
          "type": "uint256"
        },
        {
          "internalType": "uint256",
          "name": "comunityScore",
          "type": "uint256"
        },
        {
          "internalType": "bool",
          "name": "evidence",
          "type": "bool"
        },
        {
          "internalType": "bool",
          "name": "exist",
          "type": "bool"
        }
      ],
      "stateMutability": "view",
      "type": "function"
    },
    {
      "inputs": [
        {
          "internalType": "uint256",
          "name": "installmentAmount",
          "type": "uint256"
        },
        {
          "internalType": "address",
          "name": "recipient",
          "type": "address"
        }
      ],
      "name": "canApproveLoan",
      "outputs": [
        {
          "internalType": "bool",
          "name": "",
          "type": "bool"
        }
      ],
      "stateMutability": "nonpayable",
      "type": "function"
    },
    {
      "inputs": [
        {
          "internalType": "uint256",
          "name": "amount",
          "type": "uint256"
        },
        {
          "internalType": "uint256",
          "name": "interest",
          "type": "uint256"
        },
        {
          "internalType": "uint8",
          "name": "installmentNumber",
          "type": "uint8"
        },
        {
          "internalType": "uint8",
          "name": "installmentAmount",
          "type": "uint8"
        },
        {
          "internalType": "address",
          "name": "recipient",
          "type": "address"
        }
      ],
      "name": "createLoan",
      "outputs": [],
      "stateMutability": "nonpayable",
      "type": "function"
    },
    {
      "inputs": [
        {
          "internalType": "address",
          "name": "",
          "type": "address"
        }
      ],
      "name": "currentLoan",
      "outputs": [
        {
          "internalType": "uint256",
          "name": "",
          "type": "uint256"
        }
      ],
      "stateMutability": "view",
      "type": "function"
    },
    {
      "inputs": [
        {
          "internalType": "uint256",
          "name": "amount",
          "type": "uint256"
        }
      ],
      "name": "deposit",
      "outputs": [],
      "stateMutability": "nonpayable",
      "type": "function"
    },
    {
      "inputs": [],
      "name": "expectedInterest",
      "outputs": [
        {
          "internalType": "uint256",
          "name": "",
          "type": "uint256"
        }
      ],
      "stateMutability": "view",
      "type": "function"
    },
    {
      "inputs": [
        {
          "internalType": "address",
          "name": "borrower",
          "type": "address"
        },
        {
          "internalType": "uint256",
          "name": "loanId",
          "type": "uint256"
        }
      ],
      "name": "getLoan",
      "outputs": [
        {
          "components": [
            {
              "internalType": "uint256",
              "name": "amount",
              "type": "uint256"
            },
            {
              "internalType": "uint256",
              "name": "interest",
              "type": "uint256"
            },
            {
              "internalType": "uint256",
              "name": "currentInterest",
              "type": "uint256"
            },
            {
              "internalType": "uint256",
              "name": "startDate",
              "type": "uint256"
            },
            {
              "internalType": "uint8",
              "name": "installmentNumber",
              "type": "uint8"
            },
            {
              "internalType": "uint8",
              "name": "installmentAmount",
              "type": "uint8"
            },
            {
              "internalType": "address",
              "name": "recipient",
              "type": "address"
            }
          ],
          "internalType": "struct LendingPool.Loan",
          "name": "",
          "type": "tuple"
        }
      ],
      "stateMutability": "view",
      "type": "function"
    },
    {
      "inputs": [],
      "name": "lendToken",
      "outputs": [
        {
          "internalType": "contract LendToken",
          "name": "",
          "type": "address"
        }
      ],
      "stateMutability": "view",
      "type": "function"
    },
    {
      "inputs": [],
      "name": "limitParticipation",
      "outputs": [
        {
          "internalType": "uint256",
          "name": "",
          "type": "uint256"
        }
      ],
      "stateMutability": "view",
      "type": "function"
    },
    {
      "inputs": [],
      "name": "owner",
      "outputs": [
        {
          "internalType": "address",
          "name": "",
          "type": "address"
        }
      ],
      "stateMutability": "view",
      "type": "function"
    },
    {
      "inputs": [
        {
          "internalType": "uint256",
          "name": "amount",
          "type": "uint256"
        },
        {
          "internalType": "uint256",
          "name": "loanId",
          "type": "uint256"
        },
        {
          "internalType": "address",
          "name": "loanRecipient",
          "type": "address"
        }
      ],
      "name": "payLoan",
      "outputs": [],
      "stateMutability": "nonpayable",
      "type": "function"
    },
    {
      "inputs": [
        {
          "internalType": "address",
          "name": "borrowerAddress",
          "type": "address"
        },
        {
          "internalType": "uint256",
          "name": "age",
          "type": "uint256"
        },
        {
          "internalType": "enum LendingPool.LaboralStatus",
          "name": "status",
          "type": "uint8"
        },
        {
          "internalType": "uint256",
          "name": "income",
          "type": "uint256"
        },
        {
          "internalType": "uint256",
          "name": "activity",
          "type": "uint256"
        },
        {
          "internalType": "uint256",
          "name": "score",
          "type": "uint256"
        },
        {
          "internalType": "bool",
          "name": "evidence",
          "type": "bool"
        }
      ],
      "name": "registerBorrower",
      "outputs": [],
      "stateMutability": "nonpayable",
      "type": "function"
    },
    {
      "inputs": [],
      "name": "renounceOwnership",
      "outputs": [],
      "stateMutability": "nonpayable",
      "type": "function"
    },
    {
      "inputs": [
        {
          "internalType": "uint256",
          "name": "amount",
          "type": "uint256"
        }
      ],
      "name": "setLimitDeposit",
      "outputs": [],
      "stateMutability": "nonpayable",
      "type": "function"
    },
    {
      "inputs": [
        {
          "internalType": "address",
          "name": "newOwner",
          "type": "address"
        }
      ],
      "name": "transferOwnership",
      "outputs": [],
      "stateMutability": "nonpayable",
      "type": "function"
    },
    {
      "inputs": [
        {
          "internalType": "uint256",
          "name": "amount",
          "type": "uint256"
        }
      ],
      "name": "withdraw",
      "outputs": [],
      "stateMutability": "nonpayable",
      "type": "function"
    }
  ],
  "bytecode": "0x608060405260646005553480156200001657600080fd5b50604051620048113803806200481183398181016040528101906200003c919062000208565b6200005c620000506200011760201b60201c565b6200011f60201b60201c565b6001808190555080600260006101000a81548173ffffffffffffffffffffffffffffffffffffffff021916908373ffffffffffffffffffffffffffffffffffffffff160217905550604051620000b290620001e3565b604051809103906000f080158015620000cf573d6000803e3d6000fd5b50600360006101000a81548173ffffffffffffffffffffffffffffffffffffffff021916908373ffffffffffffffffffffffffffffffffffffffff1602179055505062000296565b600033905090565b60008060009054906101000a900473ffffffffffffffffffffffffffffffffffffffff169050816000806101000a81548173ffffffffffffffffffffffffffffffffffffffff021916908373ffffffffffffffffffffffffffffffffffffffff1602179055508173ffffffffffffffffffffffffffffffffffffffff168173ffffffffffffffffffffffffffffffffffffffff167f8be0079c531659141344cd1fd0a4f28419497f9722a3daafe3b4186f6b6457e060405160405180910390a35050565b611bc68062002c4b83390190565b60008151905062000202816200027c565b92915050565b6000602082840312156200021b57600080fd5b60006200022b84828501620001f1565b91505092915050565b600062000241826200025c565b9050919050565b6000620002558262000234565b9050919050565b600073ffffffffffffffffffffffffffffffffffffffff82169050919050565b620002878162000248565b81146200029357600080fd5b50565b6129a580620002a66000396000f3fe608060405234801561001057600080fd5b506004361061010b5760003560e01c80635b5e9be1116100a25780639880d7ee116100715780639880d7ee1461029a578063a1c51586146102b6578063b6b55f25146102e6578063c831929514610302578063f2fde38b1461031e5761010b565b80635b5e9be11461020c578063715018a61461023c5780638da5cb5b1461024657806393650258146102645761010b565b80632e1a7d4d116100de5780632e1a7d4d146101985780633015ab05146101b4578063374fdaf2146101d257806339f7d491146101ee5761010b565b80631083f761146101105780631d4b15191461012e5780632b203d6a1461014c5780632d7232c014610168575b600080fd5b61011861033a565b60405161012591906122e8565b60405180910390f35b610136610360565b6040516101439190612303565b60405180910390f35b61016660048036038101906101619190611eae565b610386565b005b610182600480360381019061017d9190611f00565b61040c565b60405161018f91906122cd565b60405180910390f35b6101b260048036038101906101ad9190611eae565b610631565b005b6101bc610818565b6040516101c99190612459565b60405180910390f35b6101ec60048036038101906101e79190611de7565b61081e565b005b6101f6610a13565b6040516102039190612459565b60405180910390f35b61022660048036038101906102219190611d82565b610a19565b6040516102339190612459565b60405180910390f35b610244610a31565b005b61024e610ab9565b60405161025b9190612252565b60405180910390f35b61027e60048036038101906102799190611d82565b610ae2565b6040516102919796959493929190612474565b60405180910390f35b6102b460048036038101906102af9190611f8b565b610b4b565b005b6102d060048036038101906102cb9190611dab565b610f82565b6040516102dd919061243e565b60405180910390f35b61030060048036038101906102fb9190611eae565b6110a5565b005b61031c60048036038101906103179190611f3c565b6112dd565b005b61033860048036038101906103339190611d82565b611630565b005b600260009054906101000a900473ffffffffffffffffffffffffffffffffffffffff1681565b600360009054906101000a900473ffffffffffffffffffffffffffffffffffffffff1681565b61038e611728565b73ffffffffffffffffffffffffffffffffffffffff166103ac610ab9565b73ffffffffffffffffffffffffffffffffffffffff1614610402576040517f08c379a00000000000000000000000000000000000000000000000000000000081526004016103f9906123be565b60405180910390fd5b8060058190555050565b600080600760008473ffffffffffffffffffffffffffffffffffffffff1673ffffffffffffffffffffffffffffffffffffffff1681526020019081526020016000206040518060e0016040529081600082015481526020016001820160009054906101000a900460ff1660038111156104ae577f4e487b7100000000000000000000000000000000000000000000000000000000600052602160045260246000fd5b60038111156104e6577f4e487b7100000000000000000000000000000000000000000000000000000000600052602160045260246000fd5b81526020016002820154815260200160038201548152602001600482015481526020016005820160009054906101000a900460ff161515151581526020016005820160019054906101000a900460ff1615151515815250509050600061054f8260000151611730565b9050600061056083602001516117a9565b9050600061057c87856040015161057791906125d5565b6119b7565b9050600061058d8560600151611a0f565b9050600061059e8660800151611a87565b905060008660a001516105b25760006105b5565b60055b60ff169050600060376064838587898b8d6105d091906124f4565b6105da91906124f4565b6105e491906124f4565b6105ee91906124f4565b6105f891906124f4565b610602919061257b565b61060c919061254a565b9050600381101561061e576000610621565b60015b9850505050505050505092915050565b60026001541415610677576040517f08c379a000000000000000000000000000000000000000000000000000000000815260040161066e9061241e565b60405180910390fd5b6002600181905550600081116106c2576040517f08c379a00000000000000000000000000000000000000000000000000000000081526004016106b99061239e565b60405180910390fd5b60006106cc611728565b9050600360009054906101000a900473ffffffffffffffffffffffffffffffffffffffff1673ffffffffffffffffffffffffffffffffffffffff166379cc679082846040518363ffffffff1660e01b815260040161072b9291906122a4565b600060405180830381600087803b15801561074557600080fd5b505af1158015610759573d6000803e3d6000fd5b50505050600260009054906101000a900473ffffffffffffffffffffffffffffffffffffffff1673ffffffffffffffffffffffffffffffffffffffff1663a9059cbb82846040518363ffffffff1660e01b81526004016107ba9291906122a4565b602060405180830381600087803b1580156107d457600080fd5b505af11580156107e8573d6000803e3d6000fd5b505050506040513d601f19601f8201168201806040525081019061080c9190611e85565b50506001808190555050565b60045481565b610826611728565b73ffffffffffffffffffffffffffffffffffffffff16610844610ab9565b73ffffffffffffffffffffffffffffffffffffffff161461089a576040517f08c379a0000000000000000000000000000000000000000000000000000000008152600401610891906123be565b60405180910390fd5b6040518060e001604052808781526020018660038111156108e4577f4e487b7100000000000000000000000000000000000000000000000000000000600052602160045260246000fd5b8152602001858152602001848152602001838152602001821515815260200160011515815250600760008973ffffffffffffffffffffffffffffffffffffffff1673ffffffffffffffffffffffffffffffffffffffff1681526020019081526020016000206000820151816000015560208201518160010160006101000a81548160ff021916908360038111156109a4577f4e487b7100000000000000000000000000000000000000000000000000000000600052602160045260246000fd5b021790555060408201518160020155606082015181600301556080820151816004015560a08201518160050160006101000a81548160ff02191690831515021790555060c08201518160050160016101000a81548160ff02191690831515021790555090505050505050505050565b60055481565b60066020528060005260406000206000915090505481565b610a39611728565b73ffffffffffffffffffffffffffffffffffffffff16610a57610ab9565b73ffffffffffffffffffffffffffffffffffffffff1614610aad576040517f08c379a0000000000000000000000000000000000000000000000000000000008152600401610aa4906123be565b60405180910390fd5b610ab76000611ae4565b565b60008060009054906101000a900473ffffffffffffffffffffffffffffffffffffffff16905090565b60076020528060005260406000206000915090508060000154908060010160009054906101000a900460ff16908060020154908060030154908060040154908060050160009054906101000a900460ff16908060050160019054906101000a900460ff16905087565b600760008273ffffffffffffffffffffffffffffffffffffffff1673ffffffffffffffffffffffffffffffffffffffff16815260200190815260200160002060050160019054906101000a900460ff16610bda576040517f08c379a0000000000000000000000000000000000000000000000000000000008152600401610bd1906123de565b60405180910390fd5b610be78260ff168261040c565b610c26576040517f08c379a0000000000000000000000000000000000000000000000000000000008152600401610c1d9061237e565b60405180910390fd5b610c2e611c96565b858160000181815250508481602001818152505083816080019060ff16908160ff1681525050828160a0019060ff16908160ff1681525050818160c0019073ffffffffffffffffffffffffffffffffffffffff16908173ffffffffffffffffffffffffffffffffffffffff1681525050428160600181815250506000600660008473ffffffffffffffffffffffffffffffffffffffff1673ffffffffffffffffffffffffffffffffffffffff16815260200190815260200160002054905081600860008573ffffffffffffffffffffffffffffffffffffffff1673ffffffffffffffffffffffffffffffffffffffff16815260200190815260200160002060008381526020019081526020016000206000820151816000015560208201518160010155604082015181600201556060820151816003015560808201518160040160006101000a81548160ff021916908360ff16021790555060a08201518160040160016101000a81548160ff021916908360ff16021790555060c08201518160040160026101000a81548173ffffffffffffffffffffffffffffffffffffffff021916908373ffffffffffffffffffffffffffffffffffffffff160217905550905050600181610dfe91906124f4565b600660008573ffffffffffffffffffffffffffffffffffffffff1673ffffffffffffffffffffffffffffffffffffffff16815260200190815260200160002081905550600060648088610e5191906124f4565b89610e5c919061257b565b610e66919061254a565b90506064610e72611ba8565b60648a610e7d611ba8565b85610e8891906124f4565b610e9291906125d5565b610e9c919061257b565b610ea6919061254a565b610eb091906125d5565b60046000828254610ec191906124f4565b92505081905550600260009054906101000a900473ffffffffffffffffffffffffffffffffffffffff1673ffffffffffffffffffffffffffffffffffffffff1663a9059cbb858a6040518363ffffffff1660e01b8152600401610f259291906122a4565b602060405180830381600087803b158015610f3f57600080fd5b505af1158015610f53573d6000803e3d6000fd5b505050506040513d601f19601f82011682018060405250810190610f779190611e85565b505050505050505050565b610f8a611c96565b600860008473ffffffffffffffffffffffffffffffffffffffff1673ffffffffffffffffffffffffffffffffffffffff16815260200190815260200160002060008381526020019081526020016000206040518060e0016040529081600082015481526020016001820154815260200160028201548152602001600382015481526020016004820160009054906101000a900460ff1660ff1660ff1681526020016004820160019054906101000a900460ff1660ff1660ff1681526020016004820160029054906101000a900473ffffffffffffffffffffffffffffffffffffffff1673ffffffffffffffffffffffffffffffffffffffff1673ffffffffffffffffffffffffffffffffffffffff1681525050905092915050565b600260015414156110eb576040517f08c379a00000000000000000000000000000000000000000000000000000000081526004016110e29061241e565b60405180910390fd5b600260018190555060008111611136576040517f08c379a000000000000000000000000000000000000000000000000000000000815260040161112d9061239e565b60405180910390fd5b6000151561114382611c5a565b151514611185576040517f08c379a000000000000000000000000000000000000000000000000000000000815260040161117c9061233e565b60405180910390fd5b600061118f611728565b9050600260009054906101000a900473ffffffffffffffffffffffffffffffffffffffff1673ffffffffffffffffffffffffffffffffffffffff166323b872dd8230856040518463ffffffff1660e01b81526004016111f09392919061226d565b602060405180830381600087803b15801561120a57600080fd5b505af115801561121e573d6000803e3d6000fd5b505050506040513d601f19601f820116820180604052508101906112429190611e85565b50600360009054906101000a900473ffffffffffffffffffffffffffffffffffffffff1673ffffffffffffffffffffffffffffffffffffffff166340c10f1982846040518363ffffffff1660e01b81526004016112a09291906122a4565b600060405180830381600087803b1580156112ba57600080fd5b505af11580156112ce573d6000803e3d6000fd5b50505050506001808190555050565b6000600860008373ffffffffffffffffffffffffffffffffffffffff1673ffffffffffffffffffffffffffffffffffffffff168152602001908152602001600020600084815260200190815260200160002090506000816000015411611378576040517f08c379a000000000000000000000000000000000000000000000000000000000815260040161136f906123fe565b60405180910390fd5b8060040160019054906101000a900460ff1660ff168410156113cf576040517f08c379a00000000000000000000000000000000000000000000000000000000081526004016113c69061235e565b60405180910390fd5b600081600001548260040160019054906101000a900460ff1660ff161161140a578160040160019054906101000a900460ff1660ff16611410565b81600001545b9050600082600001549050600260009054906101000a900473ffffffffffffffffffffffffffffffffffffffff1673ffffffffffffffffffffffffffffffffffffffff166323b872dd8530856040518463ffffffff1660e01b815260040161147a9392919061226d565b602060405180830381600087803b15801561149457600080fd5b505af11580156114a8573d6000803e3d6000fd5b505050506040513d601f19601f820116820180604052508101906114cc9190611e85565b50600c6064846001015485600001540281611510577f4e487b7100000000000000000000000000000000000000000000000000000000600052601260045260246000fd5b0481611545577f4e487b7100000000000000000000000000000000000000000000000000000000600052601260045260246000fd5b048360020181905550600083600201548460040160019054906101000a900460ff1660ff1603905080846000016000828254039250508190555050808360000154111561159757600083600001819055505b600360009054906101000a900473ffffffffffffffffffffffffffffffffffffffff1673ffffffffffffffffffffffffffffffffffffffff1663949fd62f84600201546040518263ffffffff1660e01b81526004016115f69190612459565b600060405180830381600087803b15801561161057600080fd5b505af1158015611624573d6000803e3d6000fd5b50505050505050505050565b611638611728565b73ffffffffffffffffffffffffffffffffffffffff16611656610ab9565b73ffffffffffffffffffffffffffffffffffffffff16146116ac576040517f08c379a00000000000000000000000000000000000000000000000000000000081526004016116a3906123be565b60405180910390fd5b600073ffffffffffffffffffffffffffffffffffffffff168173ffffffffffffffffffffffffffffffffffffffff16141561171c576040517f08c379a00000000000000000000000000000000000000000000000000000000081526004016117139061231e565b60405180910390fd5b61172581611ae4565b50565b600033905090565b600060128210158015611744575060168211155b1561175257600690506117a4565b60178210158015611764575060288211155b1561177257600a90506117a4565b602982101580156117845750603c8211155b1561179257600890506117a4565b603c82106117a357600390506117a4565b5b919050565b60008060038111156117e4577f4e487b7100000000000000000000000000000000000000000000000000000000600052602160045260246000fd5b82600381111561181d577f4e487b7100000000000000000000000000000000000000000000000000000000600052602160045260246000fd5b141561182c57600a90506119b2565b60016003811115611866577f4e487b7100000000000000000000000000000000000000000000000000000000600052602160045260246000fd5b82600381111561189f577f4e487b7100000000000000000000000000000000000000000000000000000000600052602160045260246000fd5b14156118ae57600890506119b2565b600260038111156118e8577f4e487b7100000000000000000000000000000000000000000000000000000000600052602160045260246000fd5b826003811115611921577f4e487b7100000000000000000000000000000000000000000000000000000000600052602160045260246000fd5b141561193057600390506119b2565b600380811115611969577f4e487b7100000000000000000000000000000000000000000000000000000000600052602160045260246000fd5b8260038111156119a2577f4e487b7100000000000000000000000000000000000000000000000000000000600052602160045260246000fd5b14156119b157600090506119b2565b5b919050565b60008082101580156119ca575060328211155b156119d857600a9050611a0a565b603382101580156119ea575060648211155b156119f85760059050611a0a565b60648210611a095760009050611a0a565b5b919050565b6000808210158015611a22575060048211155b15611a305760039050611a82565b60058210158015611a425750600f8211155b15611a505760069050611a82565b600f8210158015611a62575060198211155b15611a705760089050611a82565b60198210611a8157600a9050611a82565b5b919050565b6000808210158015611a9a575060028211155b15611aa85760009050611adf565b6003821415611aba5760039050611adf565b6004821415611acc5760079050611adf565b6005821415611ade57600a9050611adf565b5b919050565b60008060009054906101000a900473ffffffffffffffffffffffffffffffffffffffff169050816000806101000a81548173ffffffffffffffffffffffffffffffffffffffff021916908373ffffffffffffffffffffffffffffffffffffffff1602179055508173ffffffffffffffffffffffffffffffffffffffff168173ffffffffffffffffffffffffffffffffffffffff167f8be0079c531659141344cd1fd0a4f28419497f9722a3daafe3b4186f6b6457e060405160405180910390a35050565b6000600260009054906101000a900473ffffffffffffffffffffffffffffffffffffffff1673ffffffffffffffffffffffffffffffffffffffff166370a08231306040518263ffffffff1660e01b8152600401611c059190612252565b60206040518083038186803b158015611c1d57600080fd5b505afa158015611c31573d6000803e3d6000fd5b505050506040513d601f19601f82011682018060405250810190611c559190611ed7565b905090565b600080611c65611ba8565b83611c7091906124f4565b905060055481606485611c83919061257b565b611c8d919061254a565b11915050919050565b6040518060e0016040528060008152602001600081526020016000815260200160008152602001600060ff168152602001600060ff168152602001600073ffffffffffffffffffffffffffffffffffffffff1681525090565b600081359050611cfe81612903565b92915050565b600081359050611d138161291a565b92915050565b600081519050611d288161291a565b92915050565b600081359050611d3d81612931565b92915050565b600081359050611d5281612941565b92915050565b600081519050611d6781612941565b92915050565b600081359050611d7c81612958565b92915050565b600060208284031215611d9457600080fd5b6000611da284828501611cef565b91505092915050565b60008060408385031215611dbe57600080fd5b6000611dcc85828601611cef565b9250506020611ddd85828601611d43565b9150509250929050565b600080600080600080600060e0888a031215611e0257600080fd5b6000611e108a828b01611cef565b9750506020611e218a828b01611d43565b9650506040611e328a828b01611d2e565b9550506060611e438a828b01611d43565b9450506080611e548a828b01611d43565b93505060a0611e658a828b01611d43565b92505060c0611e768a828b01611d04565b91505092959891949750929550565b600060208284031215611e9757600080fd5b6000611ea584828501611d19565b91505092915050565b600060208284031215611ec057600080fd5b6000611ece84828501611d43565b91505092915050565b600060208284031215611ee957600080fd5b6000611ef784828501611d58565b91505092915050565b60008060408385031215611f1357600080fd5b6000611f2185828601611d43565b9250506020611f3285828601611cef565b9150509250929050565b600080600060608486031215611f5157600080fd5b6000611f5f86828701611d43565b9350506020611f7086828701611d43565b9250506040611f8186828701611cef565b9150509250925092565b600080600080600060a08688031215611fa357600080fd5b6000611fb188828901611d43565b9550506020611fc288828901611d43565b9450506040611fd388828901611d6d565b9350506060611fe488828901611d6d565b9250506080611ff588828901611cef565b9150509295509295909350565b61200b81612609565b82525050565b61201a81612609565b82525050565b6120298161261b565b82525050565b61203881612671565b82525050565b61204781612695565b82525050565b612056816126b9565b82525050565b60006120696026836124e3565b915061207482612758565b604082019050919050565b600061208c6014836124e3565b9150612097826127a7565b602082019050919050565b60006120af6016836124e3565b91506120ba826127d0565b602082019050919050565b60006120d26013836124e3565b91506120dd826127f9565b602082019050919050565b60006120f5600e836124e3565b915061210082612822565b602082019050919050565b60006121186020836124e3565b91506121238261284b565b602082019050919050565b600061213b6015836124e3565b915061214682612874565b602082019050919050565b600061215e6011836124e3565b91506121698261289d565b602082019050919050565b6000612181601f836124e3565b915061218c826128c6565b602082019050919050565b60e0820160008201516121ad6000850182612225565b5060208201516121c06020850182612225565b5060408201516121d36040850182612225565b5060608201516121e66060850182612225565b5060808201516121f96080850182612243565b5060a082015161220c60a0850182612243565b5060c082015161221f60c0850182612002565b50505050565b61222e8161265a565b82525050565b61223d8161265a565b82525050565b61224c81612664565b82525050565b60006020820190506122676000830184612011565b92915050565b60006060820190506122826000830186612011565b61228f6020830185612011565b61229c6040830184612234565b949350505050565b60006040820190506122b96000830185612011565b6122c66020830184612234565b9392505050565b60006020820190506122e26000830184612020565b92915050565b60006020820190506122fd600083018461202f565b92915050565b6000602082019050612318600083018461203e565b92915050565b600060208201905081810360008301526123378161205c565b9050919050565b600060208201905081810360008301526123578161207f565b9050919050565b60006020820190508181036000830152612377816120a2565b9050919050565b60006020820190508181036000830152612397816120c5565b9050919050565b600060208201905081810360008301526123b7816120e8565b9050919050565b600060208201905081810360008301526123d78161210b565b9050919050565b600060208201905081810360008301526123f78161212e565b9050919050565b6000602082019050818103600083015261241781612151565b9050919050565b6000602082019050818103600083015261243781612174565b9050919050565b600060e0820190506124536000830184612197565b92915050565b600060208201905061246e6000830184612234565b92915050565b600060e082019050612489600083018a612234565b612496602083018961204d565b6124a36040830188612234565b6124b06060830187612234565b6124bd6080830186612234565b6124ca60a0830185612020565b6124d760c0830184612020565b98975050505050505050565b600082825260208201905092915050565b60006124ff8261265a565b915061250a8361265a565b9250827fffffffffffffffffffffffffffffffffffffffffffffffffffffffffffffffff0382111561253f5761253e6126cb565b5b828201905092915050565b60006125558261265a565b91506125608361265a565b9250826125705761256f6126fa565b5b828204905092915050565b60006125868261265a565b91506125918361265a565b9250817fffffffffffffffffffffffffffffffffffffffffffffffffffffffffffffffff04831182151516156125ca576125c96126cb565b5b828202905092915050565b60006125e08261265a565b91506125eb8361265a565b9250828210156125fe576125fd6126cb565b5b828203905092915050565b60006126148261263a565b9050919050565b60008115159050919050565b6000819050612635826128ef565b919050565b600073ffffffffffffffffffffffffffffffffffffffff82169050919050565b6000819050919050565b600060ff82169050919050565b600061267c82612683565b9050919050565b600061268e8261263a565b9050919050565b60006126a0826126a7565b9050919050565b60006126b28261263a565b9050919050565b60006126c482612627565b9050919050565b7f4e487b7100000000000000000000000000000000000000000000000000000000600052601160045260246000fd5b7f4e487b7100000000000000000000000000000000000000000000000000000000600052601260045260246000fd5b7f4e487b7100000000000000000000000000000000000000000000000000000000600052602160045260246000fd5b7f4f776e61626c653a206e6577206f776e657220697320746865207a65726f206160008201527f6464726573730000000000000000000000000000000000000000000000000000602082015250565b7f414d4f554e545f455843454544535f4c494d4954000000000000000000000000600082015250565b7f4e4f545f494e5354414c4c4d454e545f414d4f554e5400000000000000000000600082015250565b7f43414e4e4f545f415050524f56455f4c4f414e00000000000000000000000000600082015250565b7f4e4f5f5a45524f5f414d4f554e54000000000000000000000000000000000000600082015250565b7f4f776e61626c653a2063616c6c6572206973206e6f7420746865206f776e6572600082015250565b7f424f52524f5745525f444f45534e545f45584953540000000000000000000000600082015250565b7f4c4f414e5f414c52454144595f50414944000000000000000000000000000000600082015250565b7f5265656e7472616e637947756172643a207265656e7472616e742063616c6c00600082015250565b60048110612900576128ff612729565b5b50565b61290c81612609565b811461291757600080fd5b50565b6129238161261b565b811461292e57600080fd5b50565b6004811061293e57600080fd5b50565b61294a8161265a565b811461295557600080fd5b50565b61296181612664565b811461296c57600080fd5b5056fea2646970667358221220448c0ea111d839144af46082ef623d66f388b8f79afddfff50b2db320684ae2964736f6c6343000804003360806040523480156200001157600080fd5b506200003262000026620000d460201b60201c565b620000dc60201b60201c565b6040518060400160405280600a81526020017f4c656e6420546f6b656e00000000000000000000000000000000000000000000815250600490805190602001906200007f929190620001a0565b506040518060400160405280600481526020017f4c454e440000000000000000000000000000000000000000000000000000000081525060059080519060200190620000cd929190620001a0565b50620002b5565b600033905090565b60008060009054906101000a900473ffffffffffffffffffffffffffffffffffffffff169050816000806101000a81548173ffffffffffffffffffffffffffffffffffffffff021916908373ffffffffffffffffffffffffffffffffffffffff1602179055508173ffffffffffffffffffffffffffffffffffffffff168173ffffffffffffffffffffffffffffffffffffffff167f8be0079c531659141344cd1fd0a4f28419497f9722a3daafe3b4186f6b6457e060405160405180910390a35050565b828054620001ae9062000250565b90600052602060002090601f016020900481019282620001d257600085556200021e565b82601f10620001ed57805160ff19168380011785556200021e565b828001600101855582156200021e579182015b828111156200021d57825182559160200191906001019062000200565b5b5090506200022d919062000231565b5090565b5b808211156200024c57600081600090555060010162000232565b5090565b600060028204905060018216806200026957607f821691505b6020821081141562000280576200027f62000286565b5b50919050565b7f4e487b7100000000000000000000000000000000000000000000000000000000600052602260045260246000fd5b61190180620002c56000396000f3fe608060405234801561001057600080fd5b50600436106101165760003560e01c806379cc6790116100a257806395d89b411161007157806395d89b41146102cf578063a9059cbb146102ed578063b0ba54071461031d578063dd62ed3e1461034d578063f2fde38b1461037d57610116565b806379cc67901461025b5780638b836b9a146102775780638da5cb5b14610295578063949fd62f146102b357610116565b8063313ce567116100e9578063313ce567146101b757806340c10f19146101d55780634c510b8d146101f157806370a0823114610221578063715018a61461025157610116565b806306fdde031461011b578063095ea7b31461013957806318160ddd1461016957806323b872dd14610187575b600080fd5b610123610399565b60405161013091906112b6565b60405180910390f35b610153600480360381019061014e919061108e565b61042b565b604051610160919061129b565b60405180910390f35b610171610449565b60405161017e91906113d8565b60405180910390f35b6101a1600480360381019061019c919061103f565b610453565b6040516101ae919061129b565b60405180910390f35b6101bf6104a0565b6040516101cc91906113f3565b60405180910390f35b6101ef60048036038101906101ea919061108e565b6104a9565b005b61020b60048036038101906102069190610fda565b610533565b60405161021891906113d8565b60405180910390f35b61023b60048036038101906102369190610fda565b61057c565b60405161024891906113d8565b60405180910390f35b6102596105d8565b005b6102756004803603810190610270919061108e565b610660565b005b61027f6107f3565b60405161028c91906113d8565b60405180910390f35b61029d6107f9565b6040516102aa9190611280565b60405180910390f35b6102cd60048036038101906102c891906110ca565b610822565b005b6102d76108ba565b6040516102e491906112b6565b60405180910390f35b6103076004803603810190610302919061108e565b61094c565b604051610314919061129b565b60405180910390f35b61033760048036038101906103329190610fda565b61096a565b60405161034491906113d8565b60405180910390f35b61036760048036038101906103629190611003565b610a0b565b60405161037491906113d8565b60405180910390f35b61039760048036038101906103929190610fda565b610a92565b005b6060600480546103a8906115c7565b80601f01602080910402602001604051908101604052809291908181526020018280546103d4906115c7565b80156104215780601f106103f657610100808354040283529160200191610421565b820191906000526020600020905b81548152906001019060200180831161040457829003601f168201915b5050505050905090565b600061043f610438610b8a565b8484610b92565b6001905092915050565b6000600354905090565b600080610495576040517f08c379a000000000000000000000000000000000000000000000000000000000815260040161048c90611338565b60405180910390fd5b600190509392505050565b60006012905090565b6104b1610b8a565b73ffffffffffffffffffffffffffffffffffffffff166104cf6107f9565b73ffffffffffffffffffffffffffffffffffffffff1614610525576040517f08c379a000000000000000000000000000000000000000000000000000000000815260040161051c90611358565b60405180910390fd5b61052f8282610d5d565b5050565b6000600160008373ffffffffffffffffffffffffffffffffffffffff1673ffffffffffffffffffffffffffffffffffffffff168152602001908152602001600020549050919050565b60006105878261096a565b600160008473ffffffffffffffffffffffffffffffffffffffff1673ffffffffffffffffffffffffffffffffffffffff168152602001908152602001600020546105d1919061142a565b9050919050565b6105e0610b8a565b73ffffffffffffffffffffffffffffffffffffffff166105fe6107f9565b73ffffffffffffffffffffffffffffffffffffffff1614610654576040517f08c379a000000000000000000000000000000000000000000000000000000000815260040161064b90611358565b60405180910390fd5b61065e6000610ea6565b565b600073ffffffffffffffffffffffffffffffffffffffff168273ffffffffffffffffffffffffffffffffffffffff1614156106d0576040517f08c379a00000000000000000000000000000000000000000000000000000000081526004016106c790611378565b60405180910390fd5b60006106db8361057c565b905081811015610720576040517f08c379a0000000000000000000000000000000000000000000000000000000008152600401610717906112d8565b60405180910390fd5b818161072c919061150b565b600160008573ffffffffffffffffffffffffffffffffffffffff1673ffffffffffffffffffffffffffffffffffffffff168152602001908152602001600020819055508160036000828254610781919061150b565b92505081905550600073ffffffffffffffffffffffffffffffffffffffff168373ffffffffffffffffffffffffffffffffffffffff167fddf252ad1be2c89b69c2b068fc378daa952ba7f163c4a11628f55a4df523b3ef846040516107e691906113d8565b60405180910390a3505050565b60065481565b60008060009054906101000a900473ffffffffffffffffffffffffffffffffffffffff16905090565b61082a610b8a565b73ffffffffffffffffffffffffffffffffffffffff166108486107f9565b73ffffffffffffffffffffffffffffffffffffffff161461089e576040517f08c379a000000000000000000000000000000000000000000000000000000000815260040161089590611358565b60405180910390fd5b80600660008282546108b0919061142a565b9250508190555050565b6060600580546108c9906115c7565b80601f01602080910402602001604051908101604052809291908181526020018280546108f5906115c7565b80156109425780601f1061091757610100808354040283529160200191610942565b820191906000526020600020905b81548152906001019060200180831161092557829003601f168201915b5050505050905090565b6000610960610959610b8a565b8484610f6a565b6001905092915050565b600080610975610449565b905060008082146109e357610988610449565b6064600160008773ffffffffffffffffffffffffffffffffffffffff1673ffffffffffffffffffffffffffffffffffffffff168152602001908152602001600020546109d491906114b1565b6109de9190611480565b6109e6565b60005b90506064816006546109f891906114b1565b610a029190611480565b92505050919050565b6000600260008473ffffffffffffffffffffffffffffffffffffffff1673ffffffffffffffffffffffffffffffffffffffff16815260200190815260200160002060008373ffffffffffffffffffffffffffffffffffffffff1673ffffffffffffffffffffffffffffffffffffffff16815260200190815260200160002054905092915050565b610a9a610b8a565b73ffffffffffffffffffffffffffffffffffffffff16610ab86107f9565b73ffffffffffffffffffffffffffffffffffffffff1614610b0e576040517f08c379a0000000000000000000000000000000000000000000000000000000008152600401610b0590611358565b60405180910390fd5b600073ffffffffffffffffffffffffffffffffffffffff168173ffffffffffffffffffffffffffffffffffffffff161415610b7e576040517f08c379a0000000000000000000000000000000000000000000000000000000008152600401610b75906112f8565b60405180910390fd5b610b8781610ea6565b50565b600033905090565b600073ffffffffffffffffffffffffffffffffffffffff168373ffffffffffffffffffffffffffffffffffffffff161415610c02576040517f08c379a0000000000000000000000000000000000000000000000000000000008152600401610bf990611398565b60405180910390fd5b600073ffffffffffffffffffffffffffffffffffffffff168273ffffffffffffffffffffffffffffffffffffffff161415610c72576040517f08c379a0000000000000000000000000000000000000000000000000000000008152600401610c6990611318565b60405180910390fd5b80600260008573ffffffffffffffffffffffffffffffffffffffff1673ffffffffffffffffffffffffffffffffffffffff16815260200190815260200160002060008473ffffffffffffffffffffffffffffffffffffffff1673ffffffffffffffffffffffffffffffffffffffff168152602001908152602001600020819055508173ffffffffffffffffffffffffffffffffffffffff168373ffffffffffffffffffffffffffffffffffffffff167f8c5be1e5ebec7d5bd14f71427d1e84f3dd0314c0f7b2291e5b200ac8c7c3b92583604051610d5091906113d8565b60405180910390a3505050565b600073ffffffffffffffffffffffffffffffffffffffff168273ffffffffffffffffffffffffffffffffffffffff161415610dcd576040517f08c379a0000000000000000000000000000000000000000000000000000000008152600401610dc4906113b8565b60405180910390fd5b8060036000828254610ddf919061142a565b9250508190555080600160008473ffffffffffffffffffffffffffffffffffffffff1673ffffffffffffffffffffffffffffffffffffffff1681526020019081526020016000206000828254610e35919061142a565b925050819055508173ffffffffffffffffffffffffffffffffffffffff16600073ffffffffffffffffffffffffffffffffffffffff167fddf252ad1be2c89b69c2b068fc378daa952ba7f163c4a11628f55a4df523b3ef83604051610e9a91906113d8565b60405180910390a35050565b60008060009054906101000a900473ffffffffffffffffffffffffffffffffffffffff169050816000806101000a81548173ffffffffffffffffffffffffffffffffffffffff021916908373ffffffffffffffffffffffffffffffffffffffff1602179055508173ffffffffffffffffffffffffffffffffffffffff168173ffffffffffffffffffffffffffffffffffffffff167f8be0079c531659141344cd1fd0a4f28419497f9722a3daafe3b4186f6b6457e060405160405180910390a35050565b6000610fab576040517f08c379a0000000000000000000000000000000000000000000000000000000008152600401610fa290611338565b60405180910390fd5b505050565b600081359050610fbf8161189d565b92915050565b600081359050610fd4816118b4565b92915050565b600060208284031215610fec57600080fd5b6000610ffa84828501610fb0565b91505092915050565b6000806040838503121561101657600080fd5b600061102485828601610fb0565b925050602061103585828601610fb0565b9150509250929050565b60008060006060848603121561105457600080fd5b600061106286828701610fb0565b935050602061107386828701610fb0565b925050604061108486828701610fc5565b9150509250925092565b600080604083850312156110a157600080fd5b60006110af85828601610fb0565b92505060206110c085828601610fc5565b9150509250929050565b6000602082840312156110dc57600080fd5b60006110ea84828501610fc5565b91505092915050565b6110fc8161153f565b82525050565b61110b81611551565b82525050565b600061111c8261140e565b6111268185611419565b9350611136818560208601611594565b61113f81611686565b840191505092915050565b6000611157602283611419565b915061116282611697565b604082019050919050565b600061117a602683611419565b9150611185826116e6565b604082019050919050565b600061119d602283611419565b91506111a882611735565b604082019050919050565b60006111c0601a83611419565b91506111cb82611784565b602082019050919050565b60006111e3602083611419565b91506111ee826117ad565b602082019050919050565b6000611206602183611419565b9150611211826117d6565b604082019050919050565b6000611229602483611419565b915061123482611825565b604082019050919050565b600061124c601f83611419565b915061125782611874565b602082019050919050565b61126b8161157d565b82525050565b61127a81611587565b82525050565b600060208201905061129560008301846110f3565b92915050565b60006020820190506112b06000830184611102565b92915050565b600060208201905081810360008301526112d08184611111565b905092915050565b600060208201905081810360008301526112f18161114a565b9050919050565b600060208201905081810360008301526113118161116d565b9050919050565b6000602082019050818103600083015261133181611190565b9050919050565b60006020820190508181036000830152611351816111b3565b9050919050565b60006020820190508181036000830152611371816111d6565b9050919050565b60006020820190508181036000830152611391816111f9565b9050919050565b600060208201905081810360008301526113b18161121c565b9050919050565b600060208201905081810360008301526113d18161123f565b9050919050565b60006020820190506113ed6000830184611262565b92915050565b60006020820190506114086000830184611271565b92915050565b600081519050919050565b600082825260208201905092915050565b60006114358261157d565b91506114408361157d565b9250827fffffffffffffffffffffffffffffffffffffffffffffffffffffffffffffffff03821115611475576114746115f9565b5b828201905092915050565b600061148b8261157d565b91506114968361157d565b9250826114a6576114a5611628565b5b828204905092915050565b60006114bc8261157d565b91506114c78361157d565b9250817fffffffffffffffffffffffffffffffffffffffffffffffffffffffffffffffff0483118215151615611500576114ff6115f9565b5b828202905092915050565b60006115168261157d565b91506115218361157d565b925082821015611534576115336115f9565b5b828203905092915050565b600061154a8261155d565b9050919050565b60008115159050919050565b600073ffffffffffffffffffffffffffffffffffffffff82169050919050565b6000819050919050565b600060ff82169050919050565b60005b838110156115b2578082015181840152602081019050611597565b838111156115c1576000848401525b50505050565b600060028204905060018216806115df57607f821691505b602082108114156115f3576115f2611657565b5b50919050565b7f4e487b7100000000000000000000000000000000000000000000000000000000600052601160045260246000fd5b7f4e487b7100000000000000000000000000000000000000000000000000000000600052601260045260246000fd5b7f4e487b7100000000000000000000000000000000000000000000000000000000600052602260045260246000fd5b6000601f19601f8301169050919050565b7f45524332303a206275726e20616d6f756e7420657863656564732062616c616e60008201527f6365000000000000000000000000000000000000000000000000000000000000602082015250565b7f4f776e61626c653a206e6577206f776e657220697320746865207a65726f206160008201527f6464726573730000000000000000000000000000000000000000000000000000602082015250565b7f45524332303a20617070726f766520746f20746865207a65726f20616464726560008201527f7373000000000000000000000000000000000000000000000000000000000000602082015250565b7f43414e4e4f545f5452414e534645525f544849535f544f4b454e000000000000600082015250565b7f4f776e61626c653a2063616c6c6572206973206e6f7420746865206f776e6572600082015250565b7f45524332303a206275726e2066726f6d20746865207a65726f2061646472657360008201527f7300000000000000000000000000000000000000000000000000000000000000602082015250565b7f45524332303a20617070726f76652066726f6d20746865207a65726f2061646460008201527f7265737300000000000000000000000000000000000000000000000000000000602082015250565b7f45524332303a206d696e7420746f20746865207a65726f206164647265737300600082015250565b6118a68161153f565b81146118b157600080fd5b50565b6118bd8161157d565b81146118c857600080fd5b5056fea2646970667358221220ce307c94dea710905115c9bb578e1e135091b314dcf43e728e2b15dabf3b3fb464736f6c63430008040033",
  "linkReferences": {},
  "deployedLinkReferences": {}
}