{
  "_format": "hh-sol-artifact-1",
  "contractName": "LendingPool",
  "sourceName": "contracts/LendingPool.sol",
  "abi": [
    {
      "inputs": [
        {
          "internalType": "contract IERC20",
          "name": "_assetToken",
          "type": "address"
        },
        {
          "internalType": "contract IScoreCalculator",
          "name": "_scoreCalculator",
          "type": "address"
        }
      ],
      "stateMutability": "nonpayable",
      "type": "constructor"
    },
    {
      "anonymous": false,
      "inputs": [
        {
          "indexed": true,
          "internalType": "address",
          "name": "previousOwner",
          "type": "address"
        },
        {
          "indexed": true,
          "internalType": "address",
          "name": "newOwner",
          "type": "address"
        }
      ],
      "name": "OwnershipTransferred",
      "type": "event"
    },
    {
      "inputs": [],
      "name": "assetToken",
      "outputs": [
        {
          "internalType": "contract IERC20",
          "name": "",
          "type": "address"
        }
      ],
      "stateMutability": "view",
      "type": "function"
    },
    {
      "inputs": [
        {
          "internalType": "uint256",
          "name": "amount",
          "type": "uint256"
        },
        {
          "internalType": "uint256",
          "name": "interest",
          "type": "uint256"
        },
        {
          "internalType": "uint8",
          "name": "installmentNumber",
          "type": "uint8"
        },
        {
          "internalType": "uint8",
          "name": "installmentAmount",
          "type": "uint8"
        },
        {
          "internalType": "address",
          "name": "recipient",
          "type": "address"
        },
        {
          "internalType": "bytes32",
          "name": "requestId",
          "type": "bytes32"
        }
      ],
      "name": "createLoan",
      "outputs": [],
      "stateMutability": "nonpayable",
      "type": "function"
    },
    {
      "inputs": [
        {
          "internalType": "address",
          "name": "",
          "type": "address"
        }
      ],
      "name": "currentLoan",
      "outputs": [
        {
          "internalType": "uint256",
          "name": "",
          "type": "uint256"
        }
      ],
      "stateMutability": "view",
      "type": "function"
    },
    {
      "inputs": [
        {
          "internalType": "uint256",
          "name": "amount",
          "type": "uint256"
        }
      ],
      "name": "deposit",
      "outputs": [],
      "stateMutability": "nonpayable",
      "type": "function"
    },
    {
      "inputs": [],
      "name": "expectedInterest",
      "outputs": [
        {
          "internalType": "uint256",
          "name": "",
          "type": "uint256"
        }
      ],
      "stateMutability": "view",
      "type": "function"
    },
    {
      "inputs": [
        {
          "internalType": "address",
          "name": "borrower",
          "type": "address"
        },
        {
          "internalType": "uint256",
          "name": "loanId",
          "type": "uint256"
        }
      ],
      "name": "getLoan",
      "outputs": [
        {
          "components": [
            {
              "internalType": "uint256",
              "name": "amount",
              "type": "uint256"
            },
            {
              "internalType": "uint256",
              "name": "interest",
              "type": "uint256"
            },
            {
              "internalType": "uint256",
              "name": "currentInterest",
              "type": "uint256"
            },
            {
              "internalType": "uint256",
              "name": "startDate",
              "type": "uint256"
            },
            {
              "internalType": "uint8",
              "name": "installmentNumber",
              "type": "uint8"
            },
            {
              "internalType": "uint8",
              "name": "installmentAmount",
              "type": "uint8"
            },
            {
              "internalType": "address",
              "name": "recipient",
              "type": "address"
            }
          ],
          "internalType": "struct LendingPool.Loan",
          "name": "",
          "type": "tuple"
        }
      ],
      "stateMutability": "view",
      "type": "function"
    },
    {
      "inputs": [],
      "name": "lendToken",
      "outputs": [
        {
          "internalType": "contract LendToken",
          "name": "",
          "type": "address"
        }
      ],
      "stateMutability": "view",
      "type": "function"
    },
    {
      "inputs": [],
      "name": "limitParticipation",
      "outputs": [
        {
          "internalType": "uint256",
          "name": "",
          "type": "uint256"
        }
      ],
      "stateMutability": "view",
      "type": "function"
    },
    {
      "inputs": [],
      "name": "owner",
      "outputs": [
        {
          "internalType": "address",
          "name": "",
          "type": "address"
        }
      ],
      "stateMutability": "view",
      "type": "function"
    },
    {
      "inputs": [
        {
          "internalType": "uint256",
          "name": "amount",
          "type": "uint256"
        },
        {
          "internalType": "uint256",
          "name": "loanId",
          "type": "uint256"
        },
        {
          "internalType": "address",
          "name": "loanRecipient",
          "type": "address"
        }
      ],
      "name": "payLoan",
      "outputs": [],
      "stateMutability": "nonpayable",
      "type": "function"
    },
    {
      "inputs": [],
      "name": "renounceOwnership",
      "outputs": [],
      "stateMutability": "nonpayable",
      "type": "function"
    },
    {
      "inputs": [],
      "name": "scoreCalculator",
      "outputs": [
        {
          "internalType": "contract IScoreCalculator",
          "name": "",
          "type": "address"
        }
      ],
      "stateMutability": "view",
      "type": "function"
    },
    {
      "inputs": [
        {
          "internalType": "uint256",
          "name": "amount",
          "type": "uint256"
        }
      ],
      "name": "setLimitDeposit",
      "outputs": [],
      "stateMutability": "nonpayable",
      "type": "function"
    },
    {
      "inputs": [
        {
          "internalType": "address",
          "name": "newOwner",
          "type": "address"
        }
      ],
      "name": "transferOwnership",
      "outputs": [],
      "stateMutability": "nonpayable",
      "type": "function"
    },
    {
      "inputs": [
        {
          "internalType": "uint256",
          "name": "amount",
          "type": "uint256"
        }
      ],
      "name": "withdraw",
      "outputs": [],
      "stateMutability": "nonpayable",
      "type": "function"
    }
  ],
  "bytecode": "0x608060405260646006553480156200001657600080fd5b5060405162003ec338038062003ec383398181016040528101906200003c919062000261565b6200005c620000506200015960201b60201c565b6200016160201b60201c565b6001808190555081600260006101000a81548173ffffffffffffffffffffffffffffffffffffffff021916908373ffffffffffffffffffffffffffffffffffffffff160217905550604051620000b29062000225565b604051809103906000f080158015620000cf573d6000803e3d6000fd5b50600460006101000a81548173ffffffffffffffffffffffffffffffffffffffff021916908373ffffffffffffffffffffffffffffffffffffffff16021790555080600360006101000a81548173ffffffffffffffffffffffffffffffffffffffff021916908373ffffffffffffffffffffffffffffffffffffffff160217905550505062000332565b600033905090565b60008060009054906101000a900473ffffffffffffffffffffffffffffffffffffffff169050816000806101000a81548173ffffffffffffffffffffffffffffffffffffffff021916908373ffffffffffffffffffffffffffffffffffffffff1602179055508173ffffffffffffffffffffffffffffffffffffffff168173ffffffffffffffffffffffffffffffffffffffff167f8be0079c531659141344cd1fd0a4f28419497f9722a3daafe3b4186f6b6457e060405160405180910390a35050565b611bc680620022fd83390190565b6000815190506200024481620002fe565b92915050565b6000815190506200025b8162000318565b92915050565b600080604083850312156200027557600080fd5b6000620002858582860162000233565b925050602062000298858286016200024a565b9150509250929050565b6000620002af82620002de565b9050919050565b6000620002c382620002a2565b9050919050565b6000620002d782620002a2565b9050919050565b600073ffffffffffffffffffffffffffffffffffffffff82169050919050565b6200030981620002b6565b81146200031557600080fd5b50565b6200032381620002ca565b81146200032f57600080fd5b50565b611fbb80620003426000396000f3fe608060405234801561001057600080fd5b50600436106100f55760003560e01c80635b5e9be111610097578063b26eb5f411610066578063b26eb5f41461024e578063b6b55f251461026c578063c831929514610288578063f2fde38b146102a4576100f5565b80635b5e9be1146101c6578063715018a6146101f65780638da5cb5b14610200578063a1c515861461021e576100f5565b80632e1a7d4d116100d35780632e1a7d4d146101525780633015ab051461016e57806339f7d4911461018c578063491ccd31146101aa576100f5565b80631083f761146100fa5780631d4b1519146101185780632b203d6a14610136575b600080fd5b6101026102c0565b60405161010f919061196d565b60405180910390f35b6101206102e6565b60405161012d91906119a3565b60405180910390f35b610150600480360381019061014b919061158c565b61030c565b005b61016c6004803603810190610167919061158c565b610392565b005b610176610579565b6040516101839190611ad9565b60405180910390f35b61019461057f565b6040516101a19190611ad9565b60405180910390f35b6101c460048036038101906101bf919061162d565b610585565b005b6101e060048036038101906101db91906114fe565b6109d8565b6040516101ed9190611ad9565b60405180910390f35b6101fe6109f0565b005b610208610a78565b60405161021591906118f2565b60405180910390f35b61023860048036038101906102339190611527565b610aa1565b6040516102459190611abe565b60405180910390f35b610256610bc4565b6040516102639190611988565b60405180910390f35b6102866004803603810190610281919061158c565b610bea565b005b6102a2600480360381019061029d91906115de565b610e22565b005b6102be60048036038101906102b991906114fe565b611175565b005b600260009054906101000a900473ffffffffffffffffffffffffffffffffffffffff1681565b600460009054906101000a900473ffffffffffffffffffffffffffffffffffffffff1681565b61031461126d565b73ffffffffffffffffffffffffffffffffffffffff16610332610a78565b73ffffffffffffffffffffffffffffffffffffffff1614610388576040517f08c379a000000000000000000000000000000000000000000000000000000000815260040161037f90611a5e565b60405180910390fd5b8060068190555050565b600260015414156103d8576040517f08c379a00000000000000000000000000000000000000000000000000000000081526004016103cf90611a9e565b60405180910390fd5b600260018190555060008111610423576040517f08c379a000000000000000000000000000000000000000000000000000000000815260040161041a90611a3e565b60405180910390fd5b600061042d61126d565b9050600460009054906101000a900473ffffffffffffffffffffffffffffffffffffffff1673ffffffffffffffffffffffffffffffffffffffff166379cc679082846040518363ffffffff1660e01b815260040161048c929190611944565b600060405180830381600087803b1580156104a657600080fd5b505af11580156104ba573d6000803e3d6000fd5b50505050600260009054906101000a900473ffffffffffffffffffffffffffffffffffffffff1673ffffffffffffffffffffffffffffffffffffffff1663a9059cbb82846040518363ffffffff1660e01b815260040161051b929190611944565b602060405180830381600087803b15801561053557600080fd5b505af1158015610549573d6000803e3d6000fd5b505050506040513d601f19601f8201168201806040525081019061056d9190611563565b50506001808190555050565b60055481565b60065481565b600360009054906101000a900473ffffffffffffffffffffffffffffffffffffffff1673ffffffffffffffffffffffffffffffffffffffff166369326ed48787878787876040518763ffffffff1660e01b81526004016105ea96959493929190611af4565b602060405180830381600087803b15801561060457600080fd5b505af1158015610618573d6000803e3d6000fd5b505050506040513d601f19601f8201168201806040525081019061063c9190611563565b61067b576040517f08c379a000000000000000000000000000000000000000000000000000000000815260040161067290611a1e565b60405180910390fd5b610683611427565b868160000181815250508581602001818152505084816080019060ff16908160ff1681525050838160a0019060ff16908160ff1681525050828160c0019073ffffffffffffffffffffffffffffffffffffffff16908173ffffffffffffffffffffffffffffffffffffffff1681525050428160600181815250506000600760008573ffffffffffffffffffffffffffffffffffffffff1673ffffffffffffffffffffffffffffffffffffffff16815260200190815260200160002054905081600860008673ffffffffffffffffffffffffffffffffffffffff1673ffffffffffffffffffffffffffffffffffffffff16815260200190815260200160002060008381526020019081526020016000206000820151816000015560208201518160010155604082015181600201556060820151816003015560808201518160040160006101000a81548160ff021916908360ff16021790555060a08201518160040160016101000a81548160ff021916908360ff16021790555060c08201518160040160026101000a81548173ffffffffffffffffffffffffffffffffffffffff021916908373ffffffffffffffffffffffffffffffffffffffff1602179055509050506001816108539190611b66565b600760008673ffffffffffffffffffffffffffffffffffffffff1673ffffffffffffffffffffffffffffffffffffffff168152602001908152602001600020819055506000606480896108a69190611b66565b8a6108b19190611bed565b6108bb9190611bbc565b905060646108c7611275565b60648b6108d2611275565b856108dd9190611b66565b6108e79190611c47565b6108f19190611bed565b6108fb9190611bbc565b6109059190611c47565b600560008282546109169190611b66565b92505081905550600260009054906101000a900473ffffffffffffffffffffffffffffffffffffffff1673ffffffffffffffffffffffffffffffffffffffff1663a9059cbb868b6040518363ffffffff1660e01b815260040161097a929190611944565b602060405180830381600087803b15801561099457600080fd5b505af11580156109a8573d6000803e3d6000fd5b505050506040513d601f19601f820116820180604052508101906109cc9190611563565b50505050505050505050565b60076020528060005260406000206000915090505481565b6109f861126d565b73ffffffffffffffffffffffffffffffffffffffff16610a16610a78565b73ffffffffffffffffffffffffffffffffffffffff1614610a6c576040517f08c379a0000000000000000000000000000000000000000000000000000000008152600401610a6390611a5e565b60405180910390fd5b610a766000611327565b565b60008060009054906101000a900473ffffffffffffffffffffffffffffffffffffffff16905090565b610aa9611427565b600860008473ffffffffffffffffffffffffffffffffffffffff1673ffffffffffffffffffffffffffffffffffffffff16815260200190815260200160002060008381526020019081526020016000206040518060e0016040529081600082015481526020016001820154815260200160028201548152602001600382015481526020016004820160009054906101000a900460ff1660ff1660ff1681526020016004820160019054906101000a900460ff1660ff1660ff1681526020016004820160029054906101000a900473ffffffffffffffffffffffffffffffffffffffff1673ffffffffffffffffffffffffffffffffffffffff1673ffffffffffffffffffffffffffffffffffffffff1681525050905092915050565b600360009054906101000a900473ffffffffffffffffffffffffffffffffffffffff1681565b60026001541415610c30576040517f08c379a0000000000000000000000000000000000000000000000000000000008152600401610c2790611a9e565b60405180910390fd5b600260018190555060008111610c7b576040517f08c379a0000000000000000000000000000000000000000000000000000000008152600401610c7290611a3e565b60405180910390fd5b60001515610c88826113eb565b151514610cca576040517f08c379a0000000000000000000000000000000000000000000000000000000008152600401610cc1906119de565b60405180910390fd5b6000610cd461126d565b9050600260009054906101000a900473ffffffffffffffffffffffffffffffffffffffff1673ffffffffffffffffffffffffffffffffffffffff166323b872dd8230856040518463ffffffff1660e01b8152600401610d359392919061190d565b602060405180830381600087803b158015610d4f57600080fd5b505af1158015610d63573d6000803e3d6000fd5b505050506040513d601f19601f82011682018060405250810190610d879190611563565b50600460009054906101000a900473ffffffffffffffffffffffffffffffffffffffff1673ffffffffffffffffffffffffffffffffffffffff166340c10f1982846040518363ffffffff1660e01b8152600401610de5929190611944565b600060405180830381600087803b158015610dff57600080fd5b505af1158015610e13573d6000803e3d6000fd5b50505050506001808190555050565b6000600860008373ffffffffffffffffffffffffffffffffffffffff1673ffffffffffffffffffffffffffffffffffffffff168152602001908152602001600020600084815260200190815260200160002090506000816000015411610ebd576040517f08c379a0000000000000000000000000000000000000000000000000000000008152600401610eb490611a7e565b60405180910390fd5b8060040160019054906101000a900460ff1660ff16841015610f14576040517f08c379a0000000000000000000000000000000000000000000000000000000008152600401610f0b906119fe565b60405180910390fd5b600081600001548260040160019054906101000a900460ff1660ff1611610f4f578160040160019054906101000a900460ff1660ff16610f55565b81600001545b9050600082600001549050600260009054906101000a900473ffffffffffffffffffffffffffffffffffffffff1673ffffffffffffffffffffffffffffffffffffffff166323b872dd8530856040518463ffffffff1660e01b8152600401610fbf9392919061190d565b602060405180830381600087803b158015610fd957600080fd5b505af1158015610fed573d6000803e3d6000fd5b505050506040513d601f19601f820116820180604052508101906110119190611563565b50600c6064846001015485600001540281611055577f4e487b7100000000000000000000000000000000000000000000000000000000600052601260045260246000fd5b048161108a577f4e487b7100000000000000000000000000000000000000000000000000000000600052601260045260246000fd5b048360020181905550600083600201548460040160019054906101000a900460ff1660ff160390508084600001600082825403925050819055505080836000015411156110dc57600083600001819055505b600460009054906101000a900473ffffffffffffffffffffffffffffffffffffffff1673ffffffffffffffffffffffffffffffffffffffff1663949fd62f84600201546040518263ffffffff1660e01b815260040161113b9190611ad9565b600060405180830381600087803b15801561115557600080fd5b505af1158015611169573d6000803e3d6000fd5b50505050505050505050565b61117d61126d565b73ffffffffffffffffffffffffffffffffffffffff1661119b610a78565b73ffffffffffffffffffffffffffffffffffffffff16146111f1576040517f08c379a00000000000000000000000000000000000000000000000000000000081526004016111e890611a5e565b60405180910390fd5b600073ffffffffffffffffffffffffffffffffffffffff168173ffffffffffffffffffffffffffffffffffffffff161415611261576040517f08c379a0000000000000000000000000000000000000000000000000000000008152600401611258906119be565b60405180910390fd5b61126a81611327565b50565b600033905090565b6000600260009054906101000a900473ffffffffffffffffffffffffffffffffffffffff1673ffffffffffffffffffffffffffffffffffffffff166370a08231306040518263ffffffff1660e01b81526004016112d291906118f2565b60206040518083038186803b1580156112ea57600080fd5b505afa1580156112fe573d6000803e3d6000fd5b505050506040513d601f19601f8201168201806040525081019061132291906115b5565b905090565b60008060009054906101000a900473ffffffffffffffffffffffffffffffffffffffff169050816000806101000a81548173ffffffffffffffffffffffffffffffffffffffff021916908373ffffffffffffffffffffffffffffffffffffffff1602179055508173ffffffffffffffffffffffffffffffffffffffff168173ffffffffffffffffffffffffffffffffffffffff167f8be0079c531659141344cd1fd0a4f28419497f9722a3daafe3b4186f6b6457e060405160405180910390a35050565b6000806113f6611275565b836114019190611b66565b9050600654816064856114149190611bed565b61141e9190611bbc565b11915050919050565b6040518060e0016040528060008152602001600081526020016000815260200160008152602001600060ff168152602001600060ff168152602001600073ffffffffffffffffffffffffffffffffffffffff1681525090565b60008135905061148f81611f12565b92915050565b6000815190506114a481611f29565b92915050565b6000813590506114b981611f40565b92915050565b6000813590506114ce81611f57565b92915050565b6000815190506114e381611f57565b92915050565b6000813590506114f881611f6e565b92915050565b60006020828403121561151057600080fd5b600061151e84828501611480565b91505092915050565b6000806040838503121561153a57600080fd5b600061154885828601611480565b9250506020611559858286016114bf565b9150509250929050565b60006020828403121561157557600080fd5b600061158384828501611495565b91505092915050565b60006020828403121561159e57600080fd5b60006115ac848285016114bf565b91505092915050565b6000602082840312156115c757600080fd5b60006115d5848285016114d4565b91505092915050565b6000806000606084860312156115f357600080fd5b6000611601868287016114bf565b9350506020611612868287016114bf565b925050604061162386828701611480565b9150509250925092565b60008060008060008060c0878903121561164657600080fd5b600061165489828a016114bf565b965050602061166589828a016114bf565b955050604061167689828a016114e9565b945050606061168789828a016114e9565b935050608061169889828a01611480565b92505060a06116a989828a016114aa565b9150509295509295509295565b6116bf81611c7b565b82525050565b6116ce81611c7b565b82525050565b6116dd81611c99565b82525050565b6116ec81611cda565b82525050565b6116fb81611cfe565b82525050565b61170a81611d22565b82525050565b600061171d602683611b55565b915061172882611da4565b604082019050919050565b6000611740601483611b55565b915061174b82611df3565b602082019050919050565b6000611763601683611b55565b915061176e82611e1c565b602082019050919050565b6000611786601383611b55565b915061179182611e45565b602082019050919050565b60006117a9600e83611b55565b91506117b482611e6e565b602082019050919050565b60006117cc602083611b55565b91506117d782611e97565b602082019050919050565b60006117ef601183611b55565b91506117fa82611ec0565b602082019050919050565b6000611812601f83611b55565b915061181d82611ee9565b602082019050919050565b60e08201600082015161183e60008501826118b6565b50602082015161185160208501826118b6565b50604082015161186460408501826118b6565b50606082015161187760608501826118b6565b50608082015161188a60808501826118d4565b5060a082015161189d60a08501826118d4565b5060c08201516118b060c08501826116b6565b50505050565b6118bf81611cc3565b82525050565b6118ce81611cc3565b82525050565b6118dd81611ccd565b82525050565b6118ec81611ccd565b82525050565b600060208201905061190760008301846116c5565b92915050565b600060608201905061192260008301866116c5565b61192f60208301856116c5565b61193c60408301846118c5565b949350505050565b600060408201905061195960008301856116c5565b61196660208301846118c5565b9392505050565b600060208201905061198260008301846116e3565b92915050565b600060208201905061199d60008301846116f2565b92915050565b60006020820190506119b86000830184611701565b92915050565b600060208201905081810360008301526119d781611710565b9050919050565b600060208201905081810360008301526119f781611733565b9050919050565b60006020820190508181036000830152611a1781611756565b9050919050565b60006020820190508181036000830152611a3781611779565b9050919050565b60006020820190508181036000830152611a578161179c565b9050919050565b60006020820190508181036000830152611a77816117bf565b9050919050565b60006020820190508181036000830152611a97816117e2565b9050919050565b60006020820190508181036000830152611ab781611805565b9050919050565b600060e082019050611ad36000830184611828565b92915050565b6000602082019050611aee60008301846118c5565b92915050565b600060c082019050611b0960008301896118c5565b611b1660208301886118c5565b611b2360408301876118e3565b611b3060608301866118e3565b611b3d60808301856116c5565b611b4a60a08301846116d4565b979650505050505050565b600082825260208201905092915050565b6000611b7182611cc3565b9150611b7c83611cc3565b9250827fffffffffffffffffffffffffffffffffffffffffffffffffffffffffffffffff03821115611bb157611bb0611d46565b5b828201905092915050565b6000611bc782611cc3565b9150611bd283611cc3565b925082611be257611be1611d75565b5b828204905092915050565b6000611bf882611cc3565b9150611c0383611cc3565b9250817fffffffffffffffffffffffffffffffffffffffffffffffffffffffffffffffff0483118215151615611c3c57611c3b611d46565b5b828202905092915050565b6000611c5282611cc3565b9150611c5d83611cc3565b925082821015611c7057611c6f611d46565b5b828203905092915050565b6000611c8682611ca3565b9050919050565b60008115159050919050565b6000819050919050565b600073ffffffffffffffffffffffffffffffffffffffff82169050919050565b6000819050919050565b600060ff82169050919050565b6000611ce582611cec565b9050919050565b6000611cf782611ca3565b9050919050565b6000611d0982611d10565b9050919050565b6000611d1b82611ca3565b9050919050565b6000611d2d82611d34565b9050919050565b6000611d3f82611ca3565b9050919050565b7f4e487b7100000000000000000000000000000000000000000000000000000000600052601160045260246000fd5b7f4e487b7100000000000000000000000000000000000000000000000000000000600052601260045260246000fd5b7f4f776e61626c653a206e6577206f776e657220697320746865207a65726f206160008201527f6464726573730000000000000000000000000000000000000000000000000000602082015250565b7f414d4f554e545f455843454544535f4c494d4954000000000000000000000000600082015250565b7f4e4f545f494e5354414c4c4d454e545f414d4f554e5400000000000000000000600082015250565b7f43414e4e4f545f415050524f56455f4c4f414e00000000000000000000000000600082015250565b7f4e4f5f5a45524f5f414d4f554e54000000000000000000000000000000000000600082015250565b7f4f776e61626c653a2063616c6c6572206973206e6f7420746865206f776e6572600082015250565b7f4c4f414e5f414c52454144595f50414944000000000000000000000000000000600082015250565b7f5265656e7472616e637947756172643a207265656e7472616e742063616c6c00600082015250565b611f1b81611c7b565b8114611f2657600080fd5b50565b611f3281611c8d565b8114611f3d57600080fd5b50565b611f4981611c99565b8114611f5457600080fd5b50565b611f6081611cc3565b8114611f6b57600080fd5b50565b611f7781611ccd565b8114611f8257600080fd5b5056fea26469706673582212200970c89dcf352041eb8c57827c43ebae9e95f7625fba2702196cdeac03d8c47b64736f6c6343000804003360806040523480156200001157600080fd5b506200003262000026620000d460201b60201c565b620000dc60201b60201c565b6040518060400160405280600a81526020017f4c656e6420546f6b656e00000000000000000000000000000000000000000000815250600490805190602001906200007f929190620001a0565b506040518060400160405280600481526020017f4c454e440000000000000000000000000000000000000000000000000000000081525060059080519060200190620000cd929190620001a0565b50620002b5565b600033905090565b60008060009054906101000a900473ffffffffffffffffffffffffffffffffffffffff169050816000806101000a81548173ffffffffffffffffffffffffffffffffffffffff021916908373ffffffffffffffffffffffffffffffffffffffff1602179055508173ffffffffffffffffffffffffffffffffffffffff168173ffffffffffffffffffffffffffffffffffffffff167f8be0079c531659141344cd1fd0a4f28419497f9722a3daafe3b4186f6b6457e060405160405180910390a35050565b828054620001ae9062000250565b90600052602060002090601f016020900481019282620001d257600085556200021e565b82601f10620001ed57805160ff19168380011785556200021e565b828001600101855582156200021e579182015b828111156200021d57825182559160200191906001019062000200565b5b5090506200022d919062000231565b5090565b5b808211156200024c57600081600090555060010162000232565b5090565b600060028204905060018216806200026957607f821691505b6020821081141562000280576200027f62000286565b5b50919050565b7f4e487b7100000000000000000000000000000000000000000000000000000000600052602260045260246000fd5b61190180620002c56000396000f3fe608060405234801561001057600080fd5b50600436106101165760003560e01c806379cc6790116100a257806395d89b411161007157806395d89b41146102cf578063a9059cbb146102ed578063b0ba54071461031d578063dd62ed3e1461034d578063f2fde38b1461037d57610116565b806379cc67901461025b5780638b836b9a146102775780638da5cb5b14610295578063949fd62f146102b357610116565b8063313ce567116100e9578063313ce567146101b757806340c10f19146101d55780634c510b8d146101f157806370a0823114610221578063715018a61461025157610116565b806306fdde031461011b578063095ea7b31461013957806318160ddd1461016957806323b872dd14610187575b600080fd5b610123610399565b60405161013091906112b6565b60405180910390f35b610153600480360381019061014e919061108e565b61042b565b604051610160919061129b565b60405180910390f35b610171610449565b60405161017e91906113d8565b60405180910390f35b6101a1600480360381019061019c919061103f565b610453565b6040516101ae919061129b565b60405180910390f35b6101bf6104a0565b6040516101cc91906113f3565b60405180910390f35b6101ef60048036038101906101ea919061108e565b6104a9565b005b61020b60048036038101906102069190610fda565b610533565b60405161021891906113d8565b60405180910390f35b61023b60048036038101906102369190610fda565b61057c565b60405161024891906113d8565b60405180910390f35b6102596105d8565b005b6102756004803603810190610270919061108e565b610660565b005b61027f6107f3565b60405161028c91906113d8565b60405180910390f35b61029d6107f9565b6040516102aa9190611280565b60405180910390f35b6102cd60048036038101906102c891906110ca565b610822565b005b6102d76108ba565b6040516102e491906112b6565b60405180910390f35b6103076004803603810190610302919061108e565b61094c565b604051610314919061129b565b60405180910390f35b61033760048036038101906103329190610fda565b61096a565b60405161034491906113d8565b60405180910390f35b61036760048036038101906103629190611003565b610a0b565b60405161037491906113d8565b60405180910390f35b61039760048036038101906103929190610fda565b610a92565b005b6060600480546103a8906115c7565b80601f01602080910402602001604051908101604052809291908181526020018280546103d4906115c7565b80156104215780601f106103f657610100808354040283529160200191610421565b820191906000526020600020905b81548152906001019060200180831161040457829003601f168201915b5050505050905090565b600061043f610438610b8a565b8484610b92565b6001905092915050565b6000600354905090565b600080610495576040517f08c379a000000000000000000000000000000000000000000000000000000000815260040161048c90611338565b60405180910390fd5b600190509392505050565b60006012905090565b6104b1610b8a565b73ffffffffffffffffffffffffffffffffffffffff166104cf6107f9565b73ffffffffffffffffffffffffffffffffffffffff1614610525576040517f08c379a000000000000000000000000000000000000000000000000000000000815260040161051c90611358565b60405180910390fd5b61052f8282610d5d565b5050565b6000600160008373ffffffffffffffffffffffffffffffffffffffff1673ffffffffffffffffffffffffffffffffffffffff168152602001908152602001600020549050919050565b60006105878261096a565b600160008473ffffffffffffffffffffffffffffffffffffffff1673ffffffffffffffffffffffffffffffffffffffff168152602001908152602001600020546105d1919061142a565b9050919050565b6105e0610b8a565b73ffffffffffffffffffffffffffffffffffffffff166105fe6107f9565b73ffffffffffffffffffffffffffffffffffffffff1614610654576040517f08c379a000000000000000000000000000000000000000000000000000000000815260040161064b90611358565b60405180910390fd5b61065e6000610ea6565b565b600073ffffffffffffffffffffffffffffffffffffffff168273ffffffffffffffffffffffffffffffffffffffff1614156106d0576040517f08c379a00000000000000000000000000000000000000000000000000000000081526004016106c790611378565b60405180910390fd5b60006106db8361057c565b905081811015610720576040517f08c379a0000000000000000000000000000000000000000000000000000000008152600401610717906112d8565b60405180910390fd5b818161072c919061150b565b600160008573ffffffffffffffffffffffffffffffffffffffff1673ffffffffffffffffffffffffffffffffffffffff168152602001908152602001600020819055508160036000828254610781919061150b565b92505081905550600073ffffffffffffffffffffffffffffffffffffffff168373ffffffffffffffffffffffffffffffffffffffff167fddf252ad1be2c89b69c2b068fc378daa952ba7f163c4a11628f55a4df523b3ef846040516107e691906113d8565b60405180910390a3505050565b60065481565b60008060009054906101000a900473ffffffffffffffffffffffffffffffffffffffff16905090565b61082a610b8a565b73ffffffffffffffffffffffffffffffffffffffff166108486107f9565b73ffffffffffffffffffffffffffffffffffffffff161461089e576040517f08c379a000000000000000000000000000000000000000000000000000000000815260040161089590611358565b60405180910390fd5b80600660008282546108b0919061142a565b9250508190555050565b6060600580546108c9906115c7565b80601f01602080910402602001604051908101604052809291908181526020018280546108f5906115c7565b80156109425780601f1061091757610100808354040283529160200191610942565b820191906000526020600020905b81548152906001019060200180831161092557829003601f168201915b5050505050905090565b6000610960610959610b8a565b8484610f6a565b6001905092915050565b600080610975610449565b905060008082146109e357610988610449565b6064600160008773ffffffffffffffffffffffffffffffffffffffff1673ffffffffffffffffffffffffffffffffffffffff168152602001908152602001600020546109d491906114b1565b6109de9190611480565b6109e6565b60005b90506064816006546109f891906114b1565b610a029190611480565b92505050919050565b6000600260008473ffffffffffffffffffffffffffffffffffffffff1673ffffffffffffffffffffffffffffffffffffffff16815260200190815260200160002060008373ffffffffffffffffffffffffffffffffffffffff1673ffffffffffffffffffffffffffffffffffffffff16815260200190815260200160002054905092915050565b610a9a610b8a565b73ffffffffffffffffffffffffffffffffffffffff16610ab86107f9565b73ffffffffffffffffffffffffffffffffffffffff1614610b0e576040517f08c379a0000000000000000000000000000000000000000000000000000000008152600401610b0590611358565b60405180910390fd5b600073ffffffffffffffffffffffffffffffffffffffff168173ffffffffffffffffffffffffffffffffffffffff161415610b7e576040517f08c379a0000000000000000000000000000000000000000000000000000000008152600401610b75906112f8565b60405180910390fd5b610b8781610ea6565b50565b600033905090565b600073ffffffffffffffffffffffffffffffffffffffff168373ffffffffffffffffffffffffffffffffffffffff161415610c02576040517f08c379a0000000000000000000000000000000000000000000000000000000008152600401610bf990611398565b60405180910390fd5b600073ffffffffffffffffffffffffffffffffffffffff168273ffffffffffffffffffffffffffffffffffffffff161415610c72576040517f08c379a0000000000000000000000000000000000000000000000000000000008152600401610c6990611318565b60405180910390fd5b80600260008573ffffffffffffffffffffffffffffffffffffffff1673ffffffffffffffffffffffffffffffffffffffff16815260200190815260200160002060008473ffffffffffffffffffffffffffffffffffffffff1673ffffffffffffffffffffffffffffffffffffffff168152602001908152602001600020819055508173ffffffffffffffffffffffffffffffffffffffff168373ffffffffffffffffffffffffffffffffffffffff167f8c5be1e5ebec7d5bd14f71427d1e84f3dd0314c0f7b2291e5b200ac8c7c3b92583604051610d5091906113d8565b60405180910390a3505050565b600073ffffffffffffffffffffffffffffffffffffffff168273ffffffffffffffffffffffffffffffffffffffff161415610dcd576040517f08c379a0000000000000000000000000000000000000000000000000000000008152600401610dc4906113b8565b60405180910390fd5b8060036000828254610ddf919061142a565b9250508190555080600160008473ffffffffffffffffffffffffffffffffffffffff1673ffffffffffffffffffffffffffffffffffffffff1681526020019081526020016000206000828254610e35919061142a565b925050819055508173ffffffffffffffffffffffffffffffffffffffff16600073ffffffffffffffffffffffffffffffffffffffff167fddf252ad1be2c89b69c2b068fc378daa952ba7f163c4a11628f55a4df523b3ef83604051610e9a91906113d8565b60405180910390a35050565b60008060009054906101000a900473ffffffffffffffffffffffffffffffffffffffff169050816000806101000a81548173ffffffffffffffffffffffffffffffffffffffff021916908373ffffffffffffffffffffffffffffffffffffffff1602179055508173ffffffffffffffffffffffffffffffffffffffff168173ffffffffffffffffffffffffffffffffffffffff167f8be0079c531659141344cd1fd0a4f28419497f9722a3daafe3b4186f6b6457e060405160405180910390a35050565b6000610fab576040517f08c379a0000000000000000000000000000000000000000000000000000000008152600401610fa290611338565b60405180910390fd5b505050565b600081359050610fbf8161189d565b92915050565b600081359050610fd4816118b4565b92915050565b600060208284031215610fec57600080fd5b6000610ffa84828501610fb0565b91505092915050565b6000806040838503121561101657600080fd5b600061102485828601610fb0565b925050602061103585828601610fb0565b9150509250929050565b60008060006060848603121561105457600080fd5b600061106286828701610fb0565b935050602061107386828701610fb0565b925050604061108486828701610fc5565b9150509250925092565b600080604083850312156110a157600080fd5b60006110af85828601610fb0565b92505060206110c085828601610fc5565b9150509250929050565b6000602082840312156110dc57600080fd5b60006110ea84828501610fc5565b91505092915050565b6110fc8161153f565b82525050565b61110b81611551565b82525050565b600061111c8261140e565b6111268185611419565b9350611136818560208601611594565b61113f81611686565b840191505092915050565b6000611157602283611419565b915061116282611697565b604082019050919050565b600061117a602683611419565b9150611185826116e6565b604082019050919050565b600061119d602283611419565b91506111a882611735565b604082019050919050565b60006111c0601a83611419565b91506111cb82611784565b602082019050919050565b60006111e3602083611419565b91506111ee826117ad565b602082019050919050565b6000611206602183611419565b9150611211826117d6565b604082019050919050565b6000611229602483611419565b915061123482611825565b604082019050919050565b600061124c601f83611419565b915061125782611874565b602082019050919050565b61126b8161157d565b82525050565b61127a81611587565b82525050565b600060208201905061129560008301846110f3565b92915050565b60006020820190506112b06000830184611102565b92915050565b600060208201905081810360008301526112d08184611111565b905092915050565b600060208201905081810360008301526112f18161114a565b9050919050565b600060208201905081810360008301526113118161116d565b9050919050565b6000602082019050818103600083015261133181611190565b9050919050565b60006020820190508181036000830152611351816111b3565b9050919050565b60006020820190508181036000830152611371816111d6565b9050919050565b60006020820190508181036000830152611391816111f9565b9050919050565b600060208201905081810360008301526113b18161121c565b9050919050565b600060208201905081810360008301526113d18161123f565b9050919050565b60006020820190506113ed6000830184611262565b92915050565b60006020820190506114086000830184611271565b92915050565b600081519050919050565b600082825260208201905092915050565b60006114358261157d565b91506114408361157d565b9250827fffffffffffffffffffffffffffffffffffffffffffffffffffffffffffffffff03821115611475576114746115f9565b5b828201905092915050565b600061148b8261157d565b91506114968361157d565b9250826114a6576114a5611628565b5b828204905092915050565b60006114bc8261157d565b91506114c78361157d565b9250817fffffffffffffffffffffffffffffffffffffffffffffffffffffffffffffffff0483118215151615611500576114ff6115f9565b5b828202905092915050565b60006115168261157d565b91506115218361157d565b925082821015611534576115336115f9565b5b828203905092915050565b600061154a8261155d565b9050919050565b60008115159050919050565b600073ffffffffffffffffffffffffffffffffffffffff82169050919050565b6000819050919050565b600060ff82169050919050565b60005b838110156115b2578082015181840152602081019050611597565b838111156115c1576000848401525b50505050565b600060028204905060018216806115df57607f821691505b602082108114156115f3576115f2611657565b5b50919050565b7f4e487b7100000000000000000000000000000000000000000000000000000000600052601160045260246000fd5b7f4e487b7100000000000000000000000000000000000000000000000000000000600052601260045260246000fd5b7f4e487b7100000000000000000000000000000000000000000000000000000000600052602260045260246000fd5b6000601f19601f8301169050919050565b7f45524332303a206275726e20616d6f756e7420657863656564732062616c616e60008201527f6365000000000000000000000000000000000000000000000000000000000000602082015250565b7f4f776e61626c653a206e6577206f776e657220697320746865207a65726f206160008201527f6464726573730000000000000000000000000000000000000000000000000000602082015250565b7f45524332303a20617070726f766520746f20746865207a65726f20616464726560008201527f7373000000000000000000000000000000000000000000000000000000000000602082015250565b7f43414e4e4f545f5452414e534645525f544849535f544f4b454e000000000000600082015250565b7f4f776e61626c653a2063616c6c6572206973206e6f7420746865206f776e6572600082015250565b7f45524332303a206275726e2066726f6d20746865207a65726f2061646472657360008201527f7300000000000000000000000000000000000000000000000000000000000000602082015250565b7f45524332303a20617070726f76652066726f6d20746865207a65726f2061646460008201527f7265737300000000000000000000000000000000000000000000000000000000602082015250565b7f45524332303a206d696e7420746f20746865207a65726f206164647265737300600082015250565b6118a68161153f565b81146118b157600080fd5b50565b6118bd8161157d565b81146118c857600080fd5b5056fea264697066735822122078d05c32538d4a886e5ba87779d337c076d6f2667c4177d212f4ae3e02e2363064736f6c63430008040033",
  "linkReferences": {},
  "deployedLinkReferences": {}
}