{
  "_format": "hh-sol-artifact-1",
  "contractName": "LendToken",
  "sourceName": "contracts/LendToken.sol",
  "abi": [
    {
      "inputs": [],
      "stateMutability": "nonpayable",
      "type": "constructor"
    },
    {
      "anonymous": false,
      "inputs": [
        {
          "indexed": true,
          "internalType": "address",
          "name": "owner",
          "type": "address"
        },
        {
          "indexed": true,
          "internalType": "address",
          "name": "spender",
          "type": "address"
        },
        {
          "indexed": false,
          "internalType": "uint256",
          "name": "value",
          "type": "uint256"
        }
      ],
      "name": "Approval",
      "type": "event"
    },
    {
      "anonymous": false,
      "inputs": [
        {
          "indexed": true,
          "internalType": "address",
          "name": "previousOwner",
          "type": "address"
        },
        {
          "indexed": true,
          "internalType": "address",
          "name": "newOwner",
          "type": "address"
        }
      ],
      "name": "OwnershipTransferred",
      "type": "event"
    },
    {
      "anonymous": false,
      "inputs": [
        {
          "indexed": true,
          "internalType": "address",
          "name": "from",
          "type": "address"
        },
        {
          "indexed": true,
          "internalType": "address",
          "name": "to",
          "type": "address"
        },
        {
          "indexed": false,
          "internalType": "uint256",
          "name": "value",
          "type": "uint256"
        }
      ],
      "name": "Transfer",
      "type": "event"
    },
    {
      "inputs": [
        {
          "internalType": "uint256",
          "name": "amount",
          "type": "uint256"
        }
      ],
      "name": "addPoolGains",
      "outputs": [],
      "stateMutability": "nonpayable",
      "type": "function"
    },
    {
      "inputs": [
        {
          "internalType": "address",
          "name": "owner",
          "type": "address"
        },
        {
          "internalType": "address",
          "name": "spender",
          "type": "address"
        }
      ],
      "name": "allowance",
      "outputs": [
        {
          "internalType": "uint256",
          "name": "",
          "type": "uint256"
        }
      ],
      "stateMutability": "view",
      "type": "function"
    },
    {
      "inputs": [
        {
          "internalType": "address",
          "name": "spender",
          "type": "address"
        },
        {
          "internalType": "uint256",
          "name": "amount",
          "type": "uint256"
        }
      ],
      "name": "approve",
      "outputs": [
        {
          "internalType": "bool",
          "name": "",
          "type": "bool"
        }
      ],
      "stateMutability": "nonpayable",
      "type": "function"
    },
    {
      "inputs": [
        {
          "internalType": "address",
          "name": "user",
          "type": "address"
        }
      ],
      "name": "balanceOf",
      "outputs": [
        {
          "internalType": "uint256",
          "name": "",
          "type": "uint256"
        }
      ],
      "stateMutability": "view",
      "type": "function"
    },
    {
      "inputs": [
        {
          "internalType": "address",
          "name": "account",
          "type": "address"
        },
        {
          "internalType": "uint256",
          "name": "amount",
          "type": "uint256"
        }
      ],
      "name": "burnFrom",
      "outputs": [],
      "stateMutability": "nonpayable",
      "type": "function"
    },
    {
      "inputs": [],
      "name": "decimals",
      "outputs": [
        {
          "internalType": "uint8",
          "name": "",
          "type": "uint8"
        }
      ],
      "stateMutability": "view",
      "type": "function"
    },
    {
      "inputs": [
        {
          "internalType": "address",
          "name": "user",
          "type": "address"
        }
      ],
      "name": "getUserGains",
      "outputs": [
        {
          "internalType": "uint256",
          "name": "",
          "type": "uint256"
        }
      ],
      "stateMutability": "view",
      "type": "function"
    },
    {
      "inputs": [
        {
          "internalType": "address",
          "name": "recipient",
          "type": "address"
        },
        {
          "internalType": "uint256",
          "name": "amount",
          "type": "uint256"
        }
      ],
      "name": "mint",
      "outputs": [],
      "stateMutability": "nonpayable",
      "type": "function"
    },
    {
      "inputs": [],
      "name": "name",
      "outputs": [
        {
          "internalType": "string",
          "name": "",
          "type": "string"
        }
      ],
      "stateMutability": "view",
      "type": "function"
    },
    {
      "inputs": [],
      "name": "owner",
      "outputs": [
        {
          "internalType": "address",
          "name": "",
          "type": "address"
        }
      ],
      "stateMutability": "view",
      "type": "function"
    },
    {
      "inputs": [],
      "name": "poolGains",
      "outputs": [
        {
          "internalType": "uint256",
          "name": "",
          "type": "uint256"
        }
      ],
      "stateMutability": "view",
      "type": "function"
    },
    {
      "inputs": [
        {
          "internalType": "address",
          "name": "user",
          "type": "address"
        }
      ],
      "name": "realBalance",
      "outputs": [
        {
          "internalType": "uint256",
          "name": "",
          "type": "uint256"
        }
      ],
      "stateMutability": "view",
      "type": "function"
    },
    {
      "inputs": [],
      "name": "renounceOwnership",
      "outputs": [],
      "stateMutability": "nonpayable",
      "type": "function"
    },
    {
      "inputs": [],
      "name": "symbol",
      "outputs": [
        {
          "internalType": "string",
          "name": "",
          "type": "string"
        }
      ],
      "stateMutability": "view",
      "type": "function"
    },
    {
      "inputs": [],
      "name": "totalSupply",
      "outputs": [
        {
          "internalType": "uint256",
          "name": "",
          "type": "uint256"
        }
      ],
      "stateMutability": "view",
      "type": "function"
    },
    {
      "inputs": [
        {
          "internalType": "address",
          "name": "recipient",
          "type": "address"
        },
        {
          "internalType": "uint256",
          "name": "amount",
          "type": "uint256"
        }
      ],
      "name": "transfer",
      "outputs": [
        {
          "internalType": "bool",
          "name": "",
          "type": "bool"
        }
      ],
      "stateMutability": "nonpayable",
      "type": "function"
    },
    {
      "inputs": [
        {
          "internalType": "address",
          "name": "sender",
          "type": "address"
        },
        {
          "internalType": "address",
          "name": "recipient",
          "type": "address"
        },
        {
          "internalType": "uint256",
          "name": "amount",
          "type": "uint256"
        }
      ],
      "name": "transferFrom",
      "outputs": [
        {
          "internalType": "bool",
          "name": "",
          "type": "bool"
        }
      ],
      "stateMutability": "nonpayable",
      "type": "function"
    },
    {
      "inputs": [
        {
          "internalType": "address",
          "name": "newOwner",
          "type": "address"
        }
      ],
      "name": "transferOwnership",
      "outputs": [],
      "stateMutability": "nonpayable",
      "type": "function"
    }
  ],
  "bytecode": "0x60806040523480156200001157600080fd5b506200003262000026620000d460201b60201c565b620000dc60201b60201c565b6040518060400160405280600a81526020017f4c656e6420546f6b656e00000000000000000000000000000000000000000000815250600490805190602001906200007f929190620001a0565b506040518060400160405280600481526020017f4c454e440000000000000000000000000000000000000000000000000000000081525060059080519060200190620000cd929190620001a0565b50620002b5565b600033905090565b60008060009054906101000a900473ffffffffffffffffffffffffffffffffffffffff169050816000806101000a81548173ffffffffffffffffffffffffffffffffffffffff021916908373ffffffffffffffffffffffffffffffffffffffff1602179055508173ffffffffffffffffffffffffffffffffffffffff168173ffffffffffffffffffffffffffffffffffffffff167f8be0079c531659141344cd1fd0a4f28419497f9722a3daafe3b4186f6b6457e060405160405180910390a35050565b828054620001ae9062000250565b90600052602060002090601f016020900481019282620001d257600085556200021e565b82601f10620001ed57805160ff19168380011785556200021e565b828001600101855582156200021e579182015b828111156200021d57825182559160200191906001019062000200565b5b5090506200022d919062000231565b5090565b5b808211156200024c57600081600090555060010162000232565b5090565b600060028204905060018216806200026957607f821691505b6020821081141562000280576200027f62000286565b5b50919050565b7f4e487b7100000000000000000000000000000000000000000000000000000000600052602260045260246000fd5b61190180620002c56000396000f3fe608060405234801561001057600080fd5b50600436106101165760003560e01c806379cc6790116100a257806395d89b411161007157806395d89b41146102cf578063a9059cbb146102ed578063b0ba54071461031d578063dd62ed3e1461034d578063f2fde38b1461037d57610116565b806379cc67901461025b5780638b836b9a146102775780638da5cb5b14610295578063949fd62f146102b357610116565b8063313ce567116100e9578063313ce567146101b757806340c10f19146101d55780634c510b8d146101f157806370a0823114610221578063715018a61461025157610116565b806306fdde031461011b578063095ea7b31461013957806318160ddd1461016957806323b872dd14610187575b600080fd5b610123610399565b60405161013091906112b6565b60405180910390f35b610153600480360381019061014e919061108e565b61042b565b604051610160919061129b565b60405180910390f35b610171610449565b60405161017e91906113d8565b60405180910390f35b6101a1600480360381019061019c919061103f565b610453565b6040516101ae919061129b565b60405180910390f35b6101bf6104a0565b6040516101cc91906113f3565b60405180910390f35b6101ef60048036038101906101ea919061108e565b6104a9565b005b61020b60048036038101906102069190610fda565b610533565b60405161021891906113d8565b60405180910390f35b61023b60048036038101906102369190610fda565b61057c565b60405161024891906113d8565b60405180910390f35b6102596105d8565b005b6102756004803603810190610270919061108e565b610660565b005b61027f6107f3565b60405161028c91906113d8565b60405180910390f35b61029d6107f9565b6040516102aa9190611280565b60405180910390f35b6102cd60048036038101906102c891906110ca565b610822565b005b6102d76108ba565b6040516102e491906112b6565b60405180910390f35b6103076004803603810190610302919061108e565b61094c565b604051610314919061129b565b60405180910390f35b61033760048036038101906103329190610fda565b61096a565b60405161034491906113d8565b60405180910390f35b61036760048036038101906103629190611003565b610a0b565b60405161037491906113d8565b60405180910390f35b61039760048036038101906103929190610fda565b610a92565b005b6060600480546103a8906115c7565b80601f01602080910402602001604051908101604052809291908181526020018280546103d4906115c7565b80156104215780601f106103f657610100808354040283529160200191610421565b820191906000526020600020905b81548152906001019060200180831161040457829003601f168201915b5050505050905090565b600061043f610438610b8a565b8484610b92565b6001905092915050565b6000600354905090565b600080610495576040517f08c379a000000000000000000000000000000000000000000000000000000000815260040161048c90611338565b60405180910390fd5b600190509392505050565b60006012905090565b6104b1610b8a565b73ffffffffffffffffffffffffffffffffffffffff166104cf6107f9565b73ffffffffffffffffffffffffffffffffffffffff1614610525576040517f08c379a000000000000000000000000000000000000000000000000000000000815260040161051c90611358565b60405180910390fd5b61052f8282610d5d565b5050565b6000600160008373ffffffffffffffffffffffffffffffffffffffff1673ffffffffffffffffffffffffffffffffffffffff168152602001908152602001600020549050919050565b60006105878261096a565b600160008473ffffffffffffffffffffffffffffffffffffffff1673ffffffffffffffffffffffffffffffffffffffff168152602001908152602001600020546105d1919061142a565b9050919050565b6105e0610b8a565b73ffffffffffffffffffffffffffffffffffffffff166105fe6107f9565b73ffffffffffffffffffffffffffffffffffffffff1614610654576040517f08c379a000000000000000000000000000000000000000000000000000000000815260040161064b90611358565b60405180910390fd5b61065e6000610ea6565b565b600073ffffffffffffffffffffffffffffffffffffffff168273ffffffffffffffffffffffffffffffffffffffff1614156106d0576040517f08c379a00000000000000000000000000000000000000000000000000000000081526004016106c790611378565b60405180910390fd5b60006106db8361057c565b905081811015610720576040517f08c379a0000000000000000000000000000000000000000000000000000000008152600401610717906112d8565b60405180910390fd5b818161072c919061150b565b600160008573ffffffffffffffffffffffffffffffffffffffff1673ffffffffffffffffffffffffffffffffffffffff168152602001908152602001600020819055508160036000828254610781919061150b565b92505081905550600073ffffffffffffffffffffffffffffffffffffffff168373ffffffffffffffffffffffffffffffffffffffff167fddf252ad1be2c89b69c2b068fc378daa952ba7f163c4a11628f55a4df523b3ef846040516107e691906113d8565b60405180910390a3505050565b60065481565b60008060009054906101000a900473ffffffffffffffffffffffffffffffffffffffff16905090565b61082a610b8a565b73ffffffffffffffffffffffffffffffffffffffff166108486107f9565b73ffffffffffffffffffffffffffffffffffffffff161461089e576040517f08c379a000000000000000000000000000000000000000000000000000000000815260040161089590611358565b60405180910390fd5b80600660008282546108b0919061142a565b9250508190555050565b6060600580546108c9906115c7565b80601f01602080910402602001604051908101604052809291908181526020018280546108f5906115c7565b80156109425780601f1061091757610100808354040283529160200191610942565b820191906000526020600020905b81548152906001019060200180831161092557829003601f168201915b5050505050905090565b6000610960610959610b8a565b8484610f6a565b6001905092915050565b600080610975610449565b905060008082146109e357610988610449565b6064600160008773ffffffffffffffffffffffffffffffffffffffff1673ffffffffffffffffffffffffffffffffffffffff168152602001908152602001600020546109d491906114b1565b6109de9190611480565b6109e6565b60005b90506064816006546109f891906114b1565b610a029190611480565b92505050919050565b6000600260008473ffffffffffffffffffffffffffffffffffffffff1673ffffffffffffffffffffffffffffffffffffffff16815260200190815260200160002060008373ffffffffffffffffffffffffffffffffffffffff1673ffffffffffffffffffffffffffffffffffffffff16815260200190815260200160002054905092915050565b610a9a610b8a565b73ffffffffffffffffffffffffffffffffffffffff16610ab86107f9565b73ffffffffffffffffffffffffffffffffffffffff1614610b0e576040517f08c379a0000000000000000000000000000000000000000000000000000000008152600401610b0590611358565b60405180910390fd5b600073ffffffffffffffffffffffffffffffffffffffff168173ffffffffffffffffffffffffffffffffffffffff161415610b7e576040517f08c379a0000000000000000000000000000000000000000000000000000000008152600401610b75906112f8565b60405180910390fd5b610b8781610ea6565b50565b600033905090565b600073ffffffffffffffffffffffffffffffffffffffff168373ffffffffffffffffffffffffffffffffffffffff161415610c02576040517f08c379a0000000000000000000000000000000000000000000000000000000008152600401610bf990611398565b60405180910390fd5b600073ffffffffffffffffffffffffffffffffffffffff168273ffffffffffffffffffffffffffffffffffffffff161415610c72576040517f08c379a0000000000000000000000000000000000000000000000000000000008152600401610c6990611318565b60405180910390fd5b80600260008573ffffffffffffffffffffffffffffffffffffffff1673ffffffffffffffffffffffffffffffffffffffff16815260200190815260200160002060008473ffffffffffffffffffffffffffffffffffffffff1673ffffffffffffffffffffffffffffffffffffffff168152602001908152602001600020819055508173ffffffffffffffffffffffffffffffffffffffff168373ffffffffffffffffffffffffffffffffffffffff167f8c5be1e5ebec7d5bd14f71427d1e84f3dd0314c0f7b2291e5b200ac8c7c3b92583604051610d5091906113d8565b60405180910390a3505050565b600073ffffffffffffffffffffffffffffffffffffffff168273ffffffffffffffffffffffffffffffffffffffff161415610dcd576040517f08c379a0000000000000000000000000000000000000000000000000000000008152600401610dc4906113b8565b60405180910390fd5b8060036000828254610ddf919061142a565b9250508190555080600160008473ffffffffffffffffffffffffffffffffffffffff1673ffffffffffffffffffffffffffffffffffffffff1681526020019081526020016000206000828254610e35919061142a565b925050819055508173ffffffffffffffffffffffffffffffffffffffff16600073ffffffffffffffffffffffffffffffffffffffff167fddf252ad1be2c89b69c2b068fc378daa952ba7f163c4a11628f55a4df523b3ef83604051610e9a91906113d8565b60405180910390a35050565b60008060009054906101000a900473ffffffffffffffffffffffffffffffffffffffff169050816000806101000a81548173ffffffffffffffffffffffffffffffffffffffff021916908373ffffffffffffffffffffffffffffffffffffffff1602179055508173ffffffffffffffffffffffffffffffffffffffff168173ffffffffffffffffffffffffffffffffffffffff167f8be0079c531659141344cd1fd0a4f28419497f9722a3daafe3b4186f6b6457e060405160405180910390a35050565b6000610fab576040517f08c379a0000000000000000000000000000000000000000000000000000000008152600401610fa290611338565b60405180910390fd5b505050565b600081359050610fbf8161189d565b92915050565b600081359050610fd4816118b4565b92915050565b600060208284031215610fec57600080fd5b6000610ffa84828501610fb0565b91505092915050565b6000806040838503121561101657600080fd5b600061102485828601610fb0565b925050602061103585828601610fb0565b9150509250929050565b60008060006060848603121561105457600080fd5b600061106286828701610fb0565b935050602061107386828701610fb0565b925050604061108486828701610fc5565b9150509250925092565b600080604083850312156110a157600080fd5b60006110af85828601610fb0565b92505060206110c085828601610fc5565b9150509250929050565b6000602082840312156110dc57600080fd5b60006110ea84828501610fc5565b91505092915050565b6110fc8161153f565b82525050565b61110b81611551565b82525050565b600061111c8261140e565b6111268185611419565b9350611136818560208601611594565b61113f81611686565b840191505092915050565b6000611157602283611419565b915061116282611697565b604082019050919050565b600061117a602683611419565b9150611185826116e6565b604082019050919050565b600061119d602283611419565b91506111a882611735565b604082019050919050565b60006111c0601a83611419565b91506111cb82611784565b602082019050919050565b60006111e3602083611419565b91506111ee826117ad565b602082019050919050565b6000611206602183611419565b9150611211826117d6565b604082019050919050565b6000611229602483611419565b915061123482611825565b604082019050919050565b600061124c601f83611419565b915061125782611874565b602082019050919050565b61126b8161157d565b82525050565b61127a81611587565b82525050565b600060208201905061129560008301846110f3565b92915050565b60006020820190506112b06000830184611102565b92915050565b600060208201905081810360008301526112d08184611111565b905092915050565b600060208201905081810360008301526112f18161114a565b9050919050565b600060208201905081810360008301526113118161116d565b9050919050565b6000602082019050818103600083015261133181611190565b9050919050565b60006020820190508181036000830152611351816111b3565b9050919050565b60006020820190508181036000830152611371816111d6565b9050919050565b60006020820190508181036000830152611391816111f9565b9050919050565b600060208201905081810360008301526113b18161121c565b9050919050565b600060208201905081810360008301526113d18161123f565b9050919050565b60006020820190506113ed6000830184611262565b92915050565b60006020820190506114086000830184611271565b92915050565b600081519050919050565b600082825260208201905092915050565b60006114358261157d565b91506114408361157d565b9250827fffffffffffffffffffffffffffffffffffffffffffffffffffffffffffffffff03821115611475576114746115f9565b5b828201905092915050565b600061148b8261157d565b91506114968361157d565b9250826114a6576114a5611628565b5b828204905092915050565b60006114bc8261157d565b91506114c78361157d565b9250817fffffffffffffffffffffffffffffffffffffffffffffffffffffffffffffffff0483118215151615611500576114ff6115f9565b5b828202905092915050565b60006115168261157d565b91506115218361157d565b925082821015611534576115336115f9565b5b828203905092915050565b600061154a8261155d565b9050919050565b60008115159050919050565b600073ffffffffffffffffffffffffffffffffffffffff82169050919050565b6000819050919050565b600060ff82169050919050565b60005b838110156115b2578082015181840152602081019050611597565b838111156115c1576000848401525b50505050565b600060028204905060018216806115df57607f821691505b602082108114156115f3576115f2611657565b5b50919050565b7f4e487b7100000000000000000000000000000000000000000000000000000000600052601160045260246000fd5b7f4e487b7100000000000000000000000000000000000000000000000000000000600052601260045260246000fd5b7f4e487b7100000000000000000000000000000000000000000000000000000000600052602260045260246000fd5b6000601f19601f8301169050919050565b7f45524332303a206275726e20616d6f756e7420657863656564732062616c616e60008201527f6365000000000000000000000000000000000000000000000000000000000000602082015250565b7f4f776e61626c653a206e6577206f776e657220697320746865207a65726f206160008201527f6464726573730000000000000000000000000000000000000000000000000000602082015250565b7f45524332303a20617070726f766520746f20746865207a65726f20616464726560008201527f7373000000000000000000000000000000000000000000000000000000000000602082015250565b7f43414e4e4f545f5452414e534645525f544849535f544f4b454e000000000000600082015250565b7f4f776e61626c653a2063616c6c6572206973206e6f7420746865206f776e6572600082015250565b7f45524332303a206275726e2066726f6d20746865207a65726f2061646472657360008201527f7300000000000000000000000000000000000000000000000000000000000000602082015250565b7f45524332303a20617070726f76652066726f6d20746865207a65726f2061646460008201527f7265737300000000000000000000000000000000000000000000000000000000602082015250565b7f45524332303a206d696e7420746f20746865207a65726f206164647265737300600082015250565b6118a68161153f565b81146118b157600080fd5b50565b6118bd8161157d565b81146118c857600080fd5b5056fea2646970667358221220ce307c94dea710905115c9bb578e1e135091b314dcf43e728e2b15dabf3b3fb464736f6c63430008040033",
  "linkReferences": {},
  "deployedLinkReferences": {}
}